{
  "contractName": "AlitaRouter",
  "abi": [
    {
      "inputs": [
        {
          "internalType": "address",
          "name": "_factory",
          "type": "address"
        },
        {
          "internalType": "address",
          "name": "_WETH",
          "type": "address"
        }
      ],
      "stateMutability": "nonpayable",
      "type": "constructor"
    },
    {
      "inputs": [],
      "name": "WETH",
      "outputs": [
        {
          "internalType": "address",
          "name": "",
          "type": "address"
        }
      ],
      "stateMutability": "view",
      "type": "function"
    },
    {
      "inputs": [],
      "name": "factory",
      "outputs": [
        {
          "internalType": "address",
          "name": "",
          "type": "address"
        }
      ],
      "stateMutability": "view",
      "type": "function"
    },
    {
      "stateMutability": "payable",
      "type": "receive"
    },
    {
      "inputs": [
        {
          "internalType": "address",
          "name": "tokenA",
          "type": "address"
        },
        {
          "internalType": "address",
          "name": "tokenB",
          "type": "address"
        },
        {
          "internalType": "uint256",
          "name": "amountADesired",
          "type": "uint256"
        },
        {
          "internalType": "uint256",
          "name": "amountBDesired",
          "type": "uint256"
        },
        {
          "internalType": "uint256",
          "name": "amountAMin",
          "type": "uint256"
        },
        {
          "internalType": "uint256",
          "name": "amountBMin",
          "type": "uint256"
        },
        {
          "internalType": "address",
          "name": "to",
          "type": "address"
        },
        {
          "internalType": "uint256",
          "name": "deadline",
          "type": "uint256"
        },
        {
          "internalType": "uint256",
          "name": "startingSwapTime",
          "type": "uint256"
        }
      ],
      "name": "addLiquidity",
      "outputs": [
        {
          "internalType": "uint256",
          "name": "amountA",
          "type": "uint256"
        },
        {
          "internalType": "uint256",
          "name": "amountB",
          "type": "uint256"
        },
        {
          "internalType": "uint256",
          "name": "liquidity",
          "type": "uint256"
        }
      ],
      "stateMutability": "nonpayable",
      "type": "function"
    },
    {
      "inputs": [
        {
          "internalType": "address",
          "name": "token",
          "type": "address"
        },
        {
          "internalType": "uint256",
          "name": "amountTokenDesired",
          "type": "uint256"
        },
        {
          "internalType": "uint256",
          "name": "amountTokenMin",
          "type": "uint256"
        },
        {
          "internalType": "uint256",
          "name": "amountETHMin",
          "type": "uint256"
        },
        {
          "internalType": "address",
          "name": "to",
          "type": "address"
        },
        {
          "internalType": "uint256",
          "name": "deadline",
          "type": "uint256"
        },
        {
          "internalType": "uint256",
          "name": "startingSwapTime",
          "type": "uint256"
        }
      ],
      "name": "addLiquidityETH",
      "outputs": [
        {
          "internalType": "uint256",
          "name": "amountToken",
          "type": "uint256"
        },
        {
          "internalType": "uint256",
          "name": "amountETH",
          "type": "uint256"
        },
        {
          "internalType": "uint256",
          "name": "liquidity",
          "type": "uint256"
        }
      ],
      "stateMutability": "payable",
      "type": "function"
    },
    {
      "inputs": [
        {
          "internalType": "address",
          "name": "tokenA",
          "type": "address"
        },
        {
          "internalType": "address",
          "name": "tokenB",
          "type": "address"
        },
        {
          "internalType": "uint256",
          "name": "liquidity",
          "type": "uint256"
        },
        {
          "internalType": "uint256",
          "name": "amountAMin",
          "type": "uint256"
        },
        {
          "internalType": "uint256",
          "name": "amountBMin",
          "type": "uint256"
        },
        {
          "internalType": "address",
          "name": "to",
          "type": "address"
        },
        {
          "internalType": "uint256",
          "name": "deadline",
          "type": "uint256"
        }
      ],
      "name": "removeLiquidity",
      "outputs": [
        {
          "internalType": "uint256",
          "name": "amountA",
          "type": "uint256"
        },
        {
          "internalType": "uint256",
          "name": "amountB",
          "type": "uint256"
        }
      ],
      "stateMutability": "nonpayable",
      "type": "function"
    },
    {
      "inputs": [
        {
          "internalType": "address",
          "name": "token",
          "type": "address"
        },
        {
          "internalType": "uint256",
          "name": "liquidity",
          "type": "uint256"
        },
        {
          "internalType": "uint256",
          "name": "amountTokenMin",
          "type": "uint256"
        },
        {
          "internalType": "uint256",
          "name": "amountETHMin",
          "type": "uint256"
        },
        {
          "internalType": "address",
          "name": "to",
          "type": "address"
        },
        {
          "internalType": "uint256",
          "name": "deadline",
          "type": "uint256"
        }
      ],
      "name": "removeLiquidityETH",
      "outputs": [
        {
          "internalType": "uint256",
          "name": "amountToken",
          "type": "uint256"
        },
        {
          "internalType": "uint256",
          "name": "amountETH",
          "type": "uint256"
        }
      ],
      "stateMutability": "nonpayable",
      "type": "function"
    },
    {
      "inputs": [
        {
          "internalType": "address",
          "name": "tokenA",
          "type": "address"
        },
        {
          "internalType": "address",
          "name": "tokenB",
          "type": "address"
        },
        {
          "internalType": "uint256",
          "name": "liquidity",
          "type": "uint256"
        },
        {
          "internalType": "uint256",
          "name": "amountAMin",
          "type": "uint256"
        },
        {
          "internalType": "uint256",
          "name": "amountBMin",
          "type": "uint256"
        },
        {
          "internalType": "address",
          "name": "to",
          "type": "address"
        },
        {
          "internalType": "uint256",
          "name": "deadline",
          "type": "uint256"
        },
        {
          "internalType": "bool",
          "name": "approveMax",
          "type": "bool"
        },
        {
          "internalType": "uint8",
          "name": "v",
          "type": "uint8"
        },
        {
          "internalType": "bytes32",
          "name": "r",
          "type": "bytes32"
        },
        {
          "internalType": "bytes32",
          "name": "s",
          "type": "bytes32"
        }
      ],
      "name": "removeLiquidityWithPermit",
      "outputs": [
        {
          "internalType": "uint256",
          "name": "amountA",
          "type": "uint256"
        },
        {
          "internalType": "uint256",
          "name": "amountB",
          "type": "uint256"
        }
      ],
      "stateMutability": "nonpayable",
      "type": "function"
    },
    {
      "inputs": [
        {
          "internalType": "address",
          "name": "token",
          "type": "address"
        },
        {
          "internalType": "uint256",
          "name": "liquidity",
          "type": "uint256"
        },
        {
          "internalType": "uint256",
          "name": "amountTokenMin",
          "type": "uint256"
        },
        {
          "internalType": "uint256",
          "name": "amountETHMin",
          "type": "uint256"
        },
        {
          "internalType": "address",
          "name": "to",
          "type": "address"
        },
        {
          "internalType": "uint256",
          "name": "deadline",
          "type": "uint256"
        },
        {
          "internalType": "bool",
          "name": "approveMax",
          "type": "bool"
        },
        {
          "internalType": "uint8",
          "name": "v",
          "type": "uint8"
        },
        {
          "internalType": "bytes32",
          "name": "r",
          "type": "bytes32"
        },
        {
          "internalType": "bytes32",
          "name": "s",
          "type": "bytes32"
        }
      ],
      "name": "removeLiquidityETHWithPermit",
      "outputs": [
        {
          "internalType": "uint256",
          "name": "amountToken",
          "type": "uint256"
        },
        {
          "internalType": "uint256",
          "name": "amountETH",
          "type": "uint256"
        }
      ],
      "stateMutability": "nonpayable",
      "type": "function"
    },
    {
      "inputs": [
        {
          "internalType": "address",
          "name": "token",
          "type": "address"
        },
        {
          "internalType": "uint256",
          "name": "liquidity",
          "type": "uint256"
        },
        {
          "internalType": "uint256",
          "name": "amountTokenMin",
          "type": "uint256"
        },
        {
          "internalType": "uint256",
          "name": "amountETHMin",
          "type": "uint256"
        },
        {
          "internalType": "address",
          "name": "to",
          "type": "address"
        },
        {
          "internalType": "uint256",
          "name": "deadline",
          "type": "uint256"
        }
      ],
      "name": "removeLiquidityETHSupportingFeeOnTransferTokens",
      "outputs": [
        {
          "internalType": "uint256",
          "name": "amountETH",
          "type": "uint256"
        }
      ],
      "stateMutability": "nonpayable",
      "type": "function"
    },
    {
      "inputs": [
        {
          "internalType": "address",
          "name": "token",
          "type": "address"
        },
        {
          "internalType": "uint256",
          "name": "liquidity",
          "type": "uint256"
        },
        {
          "internalType": "uint256",
          "name": "amountTokenMin",
          "type": "uint256"
        },
        {
          "internalType": "uint256",
          "name": "amountETHMin",
          "type": "uint256"
        },
        {
          "internalType": "address",
          "name": "to",
          "type": "address"
        },
        {
          "internalType": "uint256",
          "name": "deadline",
          "type": "uint256"
        },
        {
          "internalType": "bool",
          "name": "approveMax",
          "type": "bool"
        },
        {
          "internalType": "uint8",
          "name": "v",
          "type": "uint8"
        },
        {
          "internalType": "bytes32",
          "name": "r",
          "type": "bytes32"
        },
        {
          "internalType": "bytes32",
          "name": "s",
          "type": "bytes32"
        }
      ],
      "name": "removeLiquidityETHWithPermitSupportingFeeOnTransferTokens",
      "outputs": [
        {
          "internalType": "uint256",
          "name": "amountETH",
          "type": "uint256"
        }
      ],
      "stateMutability": "nonpayable",
      "type": "function"
    },
    {
      "inputs": [
        {
          "internalType": "uint256",
          "name": "amountIn",
          "type": "uint256"
        },
        {
          "internalType": "uint256",
          "name": "amountOutMin",
          "type": "uint256"
        },
        {
          "internalType": "address[]",
          "name": "path",
          "type": "address[]"
        },
        {
          "internalType": "address",
          "name": "to",
          "type": "address"
        },
        {
          "internalType": "uint256",
          "name": "deadline",
          "type": "uint256"
        }
      ],
      "name": "swapExactTokensForTokens",
      "outputs": [
        {
          "internalType": "uint256[]",
          "name": "amounts",
          "type": "uint256[]"
        }
      ],
      "stateMutability": "nonpayable",
      "type": "function"
    },
    {
      "inputs": [
        {
          "internalType": "uint256",
          "name": "amountOut",
          "type": "uint256"
        },
        {
          "internalType": "uint256",
          "name": "amountInMax",
          "type": "uint256"
        },
        {
          "internalType": "address[]",
          "name": "path",
          "type": "address[]"
        },
        {
          "internalType": "address",
          "name": "to",
          "type": "address"
        },
        {
          "internalType": "uint256",
          "name": "deadline",
          "type": "uint256"
        }
      ],
      "name": "swapTokensForExactTokens",
      "outputs": [
        {
          "internalType": "uint256[]",
          "name": "amounts",
          "type": "uint256[]"
        }
      ],
      "stateMutability": "nonpayable",
      "type": "function"
    },
    {
      "inputs": [
        {
          "internalType": "uint256",
          "name": "amountOutMin",
          "type": "uint256"
        },
        {
          "internalType": "address[]",
          "name": "path",
          "type": "address[]"
        },
        {
          "internalType": "address",
          "name": "to",
          "type": "address"
        },
        {
          "internalType": "uint256",
          "name": "deadline",
          "type": "uint256"
        }
      ],
      "name": "swapExactETHForTokens",
      "outputs": [
        {
          "internalType": "uint256[]",
          "name": "amounts",
          "type": "uint256[]"
        }
      ],
      "stateMutability": "payable",
      "type": "function"
    },
    {
      "inputs": [
        {
          "internalType": "uint256",
          "name": "amountOut",
          "type": "uint256"
        },
        {
          "internalType": "uint256",
          "name": "amountInMax",
          "type": "uint256"
        },
        {
          "internalType": "address[]",
          "name": "path",
          "type": "address[]"
        },
        {
          "internalType": "address",
          "name": "to",
          "type": "address"
        },
        {
          "internalType": "uint256",
          "name": "deadline",
          "type": "uint256"
        }
      ],
      "name": "swapTokensForExactETH",
      "outputs": [
        {
          "internalType": "uint256[]",
          "name": "amounts",
          "type": "uint256[]"
        }
      ],
      "stateMutability": "nonpayable",
      "type": "function"
    },
    {
      "inputs": [
        {
          "internalType": "uint256",
          "name": "amountIn",
          "type": "uint256"
        },
        {
          "internalType": "uint256",
          "name": "amountOutMin",
          "type": "uint256"
        },
        {
          "internalType": "address[]",
          "name": "path",
          "type": "address[]"
        },
        {
          "internalType": "address",
          "name": "to",
          "type": "address"
        },
        {
          "internalType": "uint256",
          "name": "deadline",
          "type": "uint256"
        }
      ],
      "name": "swapExactTokensForETH",
      "outputs": [
        {
          "internalType": "uint256[]",
          "name": "amounts",
          "type": "uint256[]"
        }
      ],
      "stateMutability": "nonpayable",
      "type": "function"
    },
    {
      "inputs": [
        {
          "internalType": "uint256",
          "name": "amountOut",
          "type": "uint256"
        },
        {
          "internalType": "address[]",
          "name": "path",
          "type": "address[]"
        },
        {
          "internalType": "address",
          "name": "to",
          "type": "address"
        },
        {
          "internalType": "uint256",
          "name": "deadline",
          "type": "uint256"
        }
      ],
      "name": "swapETHForExactTokens",
      "outputs": [
        {
          "internalType": "uint256[]",
          "name": "amounts",
          "type": "uint256[]"
        }
      ],
      "stateMutability": "payable",
      "type": "function"
    },
    {
      "inputs": [
        {
          "internalType": "uint256",
          "name": "amountIn",
          "type": "uint256"
        },
        {
          "internalType": "uint256",
          "name": "amountOutMin",
          "type": "uint256"
        },
        {
          "internalType": "address[]",
          "name": "path",
          "type": "address[]"
        },
        {
          "internalType": "address",
          "name": "to",
          "type": "address"
        },
        {
          "internalType": "uint256",
          "name": "deadline",
          "type": "uint256"
        }
      ],
      "name": "swapExactTokensForTokensSupportingFeeOnTransferTokens",
      "outputs": [],
      "stateMutability": "nonpayable",
      "type": "function"
    },
    {
      "inputs": [
        {
          "internalType": "uint256",
          "name": "amountOutMin",
          "type": "uint256"
        },
        {
          "internalType": "address[]",
          "name": "path",
          "type": "address[]"
        },
        {
          "internalType": "address",
          "name": "to",
          "type": "address"
        },
        {
          "internalType": "uint256",
          "name": "deadline",
          "type": "uint256"
        }
      ],
      "name": "swapExactETHForTokensSupportingFeeOnTransferTokens",
      "outputs": [],
      "stateMutability": "payable",
      "type": "function"
    },
    {
      "inputs": [
        {
          "internalType": "uint256",
          "name": "amountIn",
          "type": "uint256"
        },
        {
          "internalType": "uint256",
          "name": "amountOutMin",
          "type": "uint256"
        },
        {
          "internalType": "address[]",
          "name": "path",
          "type": "address[]"
        },
        {
          "internalType": "address",
          "name": "to",
          "type": "address"
        },
        {
          "internalType": "uint256",
          "name": "deadline",
          "type": "uint256"
        }
      ],
      "name": "swapExactTokensForETHSupportingFeeOnTransferTokens",
      "outputs": [],
      "stateMutability": "nonpayable",
      "type": "function"
    },
    {
      "inputs": [
        {
          "internalType": "uint256",
          "name": "amountA",
          "type": "uint256"
        },
        {
          "internalType": "uint256",
          "name": "reserveA",
          "type": "uint256"
        },
        {
          "internalType": "uint256",
          "name": "reserveB",
          "type": "uint256"
        }
      ],
      "name": "quote",
      "outputs": [
        {
          "internalType": "uint256",
          "name": "amountB",
          "type": "uint256"
        }
      ],
      "stateMutability": "pure",
      "type": "function"
    },
    {
      "inputs": [
        {
          "internalType": "uint256",
          "name": "amountIn",
          "type": "uint256"
        },
        {
          "internalType": "uint256",
          "name": "reserveIn",
          "type": "uint256"
        },
        {
          "internalType": "uint256",
          "name": "reserveOut",
          "type": "uint256"
        }
      ],
      "name": "getAmountOut",
      "outputs": [
        {
          "internalType": "uint256",
          "name": "amountOut",
          "type": "uint256"
        }
      ],
      "stateMutability": "pure",
      "type": "function"
    },
    {
      "inputs": [
        {
          "internalType": "uint256",
          "name": "amountOut",
          "type": "uint256"
        },
        {
          "internalType": "uint256",
          "name": "reserveIn",
          "type": "uint256"
        },
        {
          "internalType": "uint256",
          "name": "reserveOut",
          "type": "uint256"
        }
      ],
      "name": "getAmountIn",
      "outputs": [
        {
          "internalType": "uint256",
          "name": "amountIn",
          "type": "uint256"
        }
      ],
      "stateMutability": "pure",
      "type": "function"
    },
    {
      "inputs": [
        {
          "internalType": "uint256",
          "name": "amountIn",
          "type": "uint256"
        },
        {
          "internalType": "address[]",
          "name": "path",
          "type": "address[]"
        }
      ],
      "name": "getAmountsOut",
      "outputs": [
        {
          "internalType": "uint256[]",
          "name": "amounts",
          "type": "uint256[]"
        }
      ],
      "stateMutability": "view",
      "type": "function"
    },
    {
      "inputs": [
        {
          "internalType": "uint256",
          "name": "amountOut",
          "type": "uint256"
        },
        {
          "internalType": "address[]",
          "name": "path",
          "type": "address[]"
        }
      ],
      "name": "getAmountsIn",
      "outputs": [
        {
          "internalType": "uint256[]",
          "name": "amounts",
          "type": "uint256[]"
        }
      ],
      "stateMutability": "view",
      "type": "function"
    }
  ],
  "bytecode": "0x60c060405234801561001057600080fd5b5060405162004950380380620049508339818101604052604081101561003557600080fd5b5080516020909101516001600160601b0319606092831b8116608052911b1660a05260805160601c60a05160601c6147cb620001856000398061019f5280610d505280610d8b5280610e8b52806110bb528061145752806117165280611af05280611b475280611b7b5280611bef5280611d9f5280611eab5280611f61528061203852806121905280612218528061246652806124ea5280612599528061266e528061271552806127895280612ca95280612de25280612f375280612fbf525080610f2b5280611002528061118152806111ba52806112fe52806114f7528061161252806116f4528061186d5280611b2552806120dd528061224a52806123b652806127bb5280612a1d5280612c2e5280612c575280612c875280612e875280612ff152806138f352806139365280613c0c5280613cda5280613d5a5280613ec7528061404d52506147cb6000f3fe60806040526004361061018f5760003560e01c80637ff36ab5116100d6578063b6f9de951161007f578063d06ca61f11610059578063d06ca61f14610b4a578063ded9382a14610c01578063fb3bdb4114610c74576101c8565b8063b6f9de9514610a52578063baa2abde14610ad8578063c45a015514610b35576101c8565b8063ad5c4648116100b0578063ad5c464814610998578063ad615dec146109c9578063af2979eb146109ff576101c8565b80637ff36ab51461084457806385f8c259146108ca5780638803dbee14610900576101c8565b80634a25d94a116101385780635c11d795116101125780635c11d795146106c85780636bb6a6f614610760578063791ac947146107ac576101c8565b80634a25d94a1461053657806357528cca146105ce5780635b0d598414610655576101c8565b80631f00ca74116101695780631f00ca74146103695780632195995c1461042057806338ed17391461049e576101c8565b806302751cec146101cd578063054d50d41461023957806318cbafe514610281576101c8565b366101c857336001600160a01b037f000000000000000000000000000000000000000000000000000000000000000016146101c657fe5b005b600080fd5b3480156101d957600080fd5b50610220600480360360c08110156101f057600080fd5b506001600160a01b0381358116916020810135916040820135916060810135916080820135169060a00135610cfa565b6040805192835260208301919091528051918290030190f35b34801561024557600080fd5b5061026f6004803603606081101561025c57600080fd5b5080359060208101359060400135610e1d565b60408051918252519081900360200190f35b34801561028d57600080fd5b50610319600480360360a08110156102a457600080fd5b8135916020810135918101906060810160408201356401000000008111156102cb57600080fd5b8201836020820111156102dd57600080fd5b803590602001918460208302840111640100000000831117156102ff57600080fd5b91935091506001600160a01b038135169060200135610e32565b60408051602080825283518183015283519192839290830191858101910280838360005b8381101561035557818101518382015260200161033d565b505050509050019250505060405180910390f35b34801561037557600080fd5b506103196004803603604081101561038c57600080fd5b813591908101906040810160208201356401000000008111156103ae57600080fd5b8201836020820111156103c057600080fd5b803590602001918460208302840111640100000000831117156103e257600080fd5b91908080602002602001604051908101604052809392919081815260200183836020028082843760009201919091525092955061117a945050505050565b34801561042c57600080fd5b50610220600480360361016081101561044457600080fd5b506001600160a01b038135811691602081013582169160408201359160608101359160808201359160a08101359091169060c08101359060e081013515159060ff61010082013516906101208101359061014001356111b0565b3480156104aa57600080fd5b50610319600480360360a08110156104c157600080fd5b8135916020810135918101906060810160408201356401000000008111156104e857600080fd5b8201836020820111156104fa57600080fd5b8035906020019184602083028401116401000000008311171561051c57600080fd5b91935091506001600160a01b0381351690602001356112aa565b34801561054257600080fd5b50610319600480360360a081101561055957600080fd5b81359160208101359181019060608101604082013564010000000081111561058057600080fd5b82018360208201111561059257600080fd5b803590602001918460208302840111640100000000831117156105b457600080fd5b91935091506001600160a01b0381351690602001356113fe565b3480156105da57600080fd5b5061063760048036036101208110156105f257600080fd5b506001600160a01b038135811691602081013582169160408201359160608101359160808201359160a08101359160c0820135169060e08101359061010001356115a5565b60408051938452602084019290925282820152519081900360600190f35b34801561066157600080fd5b5061026f600480360361014081101561067957600080fd5b506001600160a01b0381358116916020810135916040820135916060810135916080820135169060a08101359060c081013515159060ff60e082013516906101008101359061012001356116ec565b3480156106d457600080fd5b506101c6600480360360a08110156106eb57600080fd5b81359160208101359181019060608101604082013564010000000081111561071257600080fd5b82018360208201111561072457600080fd5b8035906020019184602083028401116401000000008311171561074657600080fd5b91935091506001600160a01b0381351690602001356117fa565b610637600480360360e081101561077657600080fd5b506001600160a01b0381358116916020810135916040820135916060810135916080820135169060a08101359060c00135611a98565b3480156107b857600080fd5b506101c6600480360360a08110156107cf57600080fd5b8135916020810135918101906060810160408201356401000000008111156107f657600080fd5b82018360208201111561080857600080fd5b8035906020019184602083028401116401000000008311171561082a57600080fd5b91935091506001600160a01b038135169060200135611d48565b6103196004803603608081101561085a57600080fd5b8135919081019060408101602082013564010000000081111561087c57600080fd5b82018360208201111561088e57600080fd5b803590602001918460208302840111640100000000831117156108b057600080fd5b91935091506001600160a01b038135169060200135611fe7565b3480156108d657600080fd5b5061026f600480360360608110156108ed57600080fd5b5080359060208101359060400135612355565b34801561090c57600080fd5b50610319600480360360a081101561092357600080fd5b81359160208101359181019060608101604082013564010000000081111561094a57600080fd5b82018360208201111561095c57600080fd5b8035906020019184602083028401116401000000008311171561097e57600080fd5b91935091506001600160a01b038135169060200135612362565b3480156109a457600080fd5b506109ad612464565b604080516001600160a01b039092168252519081900360200190f35b3480156109d557600080fd5b5061026f600480360360608110156109ec57600080fd5b5080359060208101359060400135612488565b348015610a0b57600080fd5b5061026f600480360360c0811015610a2257600080fd5b506001600160a01b0381358116916020810135916040820135916060810135916080820135169060a00135612495565b6101c660048036036080811015610a6857600080fd5b81359190810190604081016020820135640100000000811115610a8a57600080fd5b820183602082011115610a9c57600080fd5b80359060200191846020830284011164010000000083111715610abe57600080fd5b91935091506001600160a01b03813516906020013561261f565b348015610ae457600080fd5b50610220600480360360e0811015610afb57600080fd5b506001600160a01b038135811691602081013582169160408201359160608101359160808201359160a08101359091169060c001356129c6565b348015610b4157600080fd5b506109ad612c2c565b348015610b5657600080fd5b5061031960048036036040811015610b6d57600080fd5b81359190810190604081016020820135640100000000811115610b8f57600080fd5b820183602082011115610ba157600080fd5b80359060200191846020830284011164010000000083111715610bc357600080fd5b919080806020026020016040519081016040528093929190818152602001838360200280828437600092019190915250929550612c50945050505050565b348015610c0d57600080fd5b506102206004803603610140811015610c2557600080fd5b506001600160a01b0381358116916020810135916040820135916060810135916080820135169060a08101359060c081013515159060ff60e08201351690610100810135906101200135612c7d565b61031960048036036080811015610c8a57600080fd5b81359190810190604081016020820135640100000000811115610cac57600080fd5b820183602082011115610cbe57600080fd5b80359060200191846020830284011164010000000083111715610ce057600080fd5b91935091506001600160a01b038135169060200135612d91565b6000808242811015610d4a576040805162461bcd60e51b8152602060048201526014602482015273105b1a5d18549bdd5d195c8e881156141254915160621b604482015290519081900360640190fd5b610d79897f00000000000000000000000000000000000000000000000000000000000000008a8a8a308a6129c6565b9093509150610d8989868561312e565b7f00000000000000000000000000000000000000000000000000000000000000006001600160a01b0316632e1a7d4d836040518263ffffffff1660e01b815260040180828152602001915050600060405180830381600087803b158015610def57600080fd5b505af1158015610e03573d6000803e3d6000fd5b50505050610e1185836132c6565b50965096945050505050565b6000610e2a8484846133be565b949350505050565b60608142811015610e81576040805162461bcd60e51b8152602060048201526014602482015273105b1a5d18549bdd5d195c8e881156141254915160621b604482015290519081900360640190fd5b6001600160a01b037f00000000000000000000000000000000000000000000000000000000000000001686866000198101818110610ebb57fe5b905060200201356001600160a01b03166001600160a01b031614610f26576040805162461bcd60e51b815260206004820152601960248201527f416c697461526f757465723a20494e56414c49445f5041544800000000000000604482015290519081900360640190fd5b610f847f0000000000000000000000000000000000000000000000000000000000000000898888808060200260200160405190810160405280939291908181526020018383602002808284376000920191909152506134ae92505050565b91508682600184510381518110610f9757fe5b60200260200101511015610fdc5760405162461bcd60e51b815260040180806020018281038252602781526020018061460c6027913960400191505060405180910390fd5b61107a86866000818110610fec57fe5b905060200201356001600160a01b0316336110607f00000000000000000000000000000000000000000000000000000000000000008a8a600081811061102e57fe5b905060200201356001600160a01b03168b8b600181811061104b57fe5b905060200201356001600160a01b03166135fa565b8560008151811061106d57fe5b60200260200101516136d2565b6110b982878780806020026020016040519081016040528093929190818152602001838360200280828437600092019190915250309250613844915050565b7f00000000000000000000000000000000000000000000000000000000000000006001600160a01b0316632e1a7d4d836001855103815181106110f857fe5b60200260200101516040518263ffffffff1660e01b815260040180828152602001915050600060405180830381600087803b15801561113657600080fd5b505af115801561114a573d6000803e3d6000fd5b5050505061116f848360018551038151811061116257fe5b60200260200101516132c6565b509695505050505050565b60606111a77f00000000000000000000000000000000000000000000000000000000000000008484613a8a565b90505b92915050565b60008060006111e07f00000000000000000000000000000000000000000000000000000000000000008f8f6135fa565b90506000876111ef578c6111f3565b6000195b6040805163d505accf60e01b815233600482015230602482015260448101839052606481018c905260ff8a16608482015260a4810189905260c4810188905290519192506001600160a01b0384169163d505accf9160e48082019260009290919082900301818387803b15801561126957600080fd5b505af115801561127d573d6000803e3d6000fd5b505050506112908f8f8f8f8f8f8f6129c6565b809450819550505050509b509b9950505050505050505050565b606081428110156112f9576040805162461bcd60e51b8152602060048201526014602482015273105b1a5d18549bdd5d195c8e881156141254915160621b604482015290519081900360640190fd5b6113577f0000000000000000000000000000000000000000000000000000000000000000898888808060200260200160405190810160405280939291908181526020018383602002808284376000920191909152506134ae92505050565b9150868260018451038151811061136a57fe5b602002602001015110156113af5760405162461bcd60e51b815260040180806020018281038252602781526020018061460c6027913960400191505060405180910390fd5b6113bf86866000818110610fec57fe5b61116f82878780806020026020016040519081016040528093929190818152602001838360200280828437600092019190915250899250613844915050565b6060814281101561144d576040805162461bcd60e51b8152602060048201526014602482015273105b1a5d18549bdd5d195c8e881156141254915160621b604482015290519081900360640190fd5b6001600160a01b037f0000000000000000000000000000000000000000000000000000000000000000168686600019810181811061148757fe5b905060200201356001600160a01b03166001600160a01b0316146114f2576040805162461bcd60e51b815260206004820152601960248201527f416c697461526f757465723a20494e56414c49445f5041544800000000000000604482015290519081900360640190fd5b6115507f000000000000000000000000000000000000000000000000000000000000000089888880806020026020016040519081016040528093929190818152602001838360200280828437600092019190915250613a8a92505050565b9150868260008151811061156057fe5b60200260200101511115610fdc5760405162461bcd60e51b815260040180806020018281038252602381526020018061470a6023913960400191505060405180910390fd5b600080600084428110156115f7576040805162461bcd60e51b8152602060048201526014602482015273105b1a5d18549bdd5d195c8e881156141254915160621b604482015290519081900360640190fd5b6116068d8d8d8d8d8d8b613bc2565b909450925060006116387f00000000000000000000000000000000000000000000000000000000000000008f8f6135fa565b90506116468e3383886136d2565b6116528d3383876136d2565b806001600160a01b0316636a627842896040518263ffffffff1660e01b815260040180826001600160a01b03166001600160a01b03168152602001915050602060405180830381600087803b1580156116aa57600080fd5b505af11580156116be573d6000803e3d6000fd5b505050506040513d60208110156116d457600080fd5b5051949e939d50939b50919950505050505050505050565b60008061173a7f00000000000000000000000000000000000000000000000000000000000000008d7f00000000000000000000000000000000000000000000000000000000000000006135fa565b9050600086611749578b61174d565b6000195b6040805163d505accf60e01b815233600482015230602482015260448101839052606481018b905260ff8916608482015260a4810188905260c4810187905290519192506001600160a01b0384169163d505accf9160e48082019260009290919082900301818387803b1580156117c357600080fd5b505af11580156117d7573d6000803e3d6000fd5b505050506117e98d8d8d8d8d8d612495565b9d9c50505050505050505050505050565b8042811015611847576040805162461bcd60e51b8152602060048201526014602482015273105b1a5d18549bdd5d195c8e881156141254915160621b604482015290519081900360640190fd5b6118bc8585600081811061185757fe5b905060200201356001600160a01b0316336118b67f00000000000000000000000000000000000000000000000000000000000000008989600081811061189957fe5b905060200201356001600160a01b03168a8a600181811061104b57fe5b8a6136d2565b6000858560001981018181106118ce57fe5b905060200201356001600160a01b03166001600160a01b03166370a08231856040518263ffffffff1660e01b815260040180826001600160a01b03166001600160a01b0316815260200191505060206040518083038186803b15801561193357600080fd5b505afa158015611947573d6000803e3d6000fd5b505050506040513d602081101561195d57600080fd5b5051604080516020888102828101820190935288825292935061199f929091899189918291850190849080828437600092019190915250889250613e70915050565b86611a5182888860001981018181106119b457fe5b905060200201356001600160a01b03166001600160a01b03166370a08231886040518263ffffffff1660e01b815260040180826001600160a01b03166001600160a01b0316815260200191505060206040518083038186803b158015611a1957600080fd5b505afa158015611a2d573d6000803e3d6000fd5b505050506040513d6020811015611a4357600080fd5b50519063ffffffff61419b16565b1015611a8e5760405162461bcd60e51b815260040180806020018281038252602781526020018061460c6027913960400191505060405180910390fd5b5050505050505050565b60008060008442811015611aea576040805162461bcd60e51b8152602060048201526014602482015273105b1a5d18549bdd5d195c8e881156141254915160621b604482015290519081900360640190fd5b611b198b7f00000000000000000000000000000000000000000000000000000000000000008c348d8d8b613bc2565b90945092506000611b6b7f00000000000000000000000000000000000000000000000000000000000000008d7f00000000000000000000000000000000000000000000000000000000000000006135fa565b9050611b798c3383886136d2565b7f00000000000000000000000000000000000000000000000000000000000000006001600160a01b031663d0e30db0856040518263ffffffff1660e01b81526004016000604051808303818588803b158015611bd457600080fd5b505af1158015611be8573d6000803e3d6000fd5b50505050507f00000000000000000000000000000000000000000000000000000000000000006001600160a01b031663a9059cbb82866040518363ffffffff1660e01b815260040180836001600160a01b03166001600160a01b0316815260200182815260200192505050602060405180830381600087803b158015611c6d57600080fd5b505af1158015611c81573d6000803e3d6000fd5b505050506040513d6020811015611c9757600080fd5b5051611c9f57fe5b806001600160a01b0316636a627842896040518263ffffffff1660e01b815260040180826001600160a01b03166001600160a01b03168152602001915050602060405180830381600087803b158015611cf757600080fd5b505af1158015611d0b573d6000803e3d6000fd5b505050506040513d6020811015611d2157600080fd5b5051925034841015611d3957611d39338534036132c6565b50509750975097945050505050565b8042811015611d95576040805162461bcd60e51b8152602060048201526014602482015273105b1a5d18549bdd5d195c8e881156141254915160621b604482015290519081900360640190fd5b6001600160a01b037f00000000000000000000000000000000000000000000000000000000000000001685856000198101818110611dcf57fe5b905060200201356001600160a01b03166001600160a01b031614611e3a576040805162461bcd60e51b815260206004820152601960248201527f416c697461526f757465723a20494e56414c49445f5041544800000000000000604482015290519081900360640190fd5b611e4a8585600081811061185757fe5b611e88858580806020026020016040519081016040528093929190818152602001838360200280828437600092019190915250309250613e70915050565b604080516370a0823160e01b815230600482015290516000916001600160a01b037f000000000000000000000000000000000000000000000000000000000000000016916370a0823191602480820192602092909190829003018186803b158015611ef257600080fd5b505afa158015611f06573d6000803e3d6000fd5b505050506040513d6020811015611f1c57600080fd5b5051905086811015611f5f5760405162461bcd60e51b815260040180806020018281038252602781526020018061460c6027913960400191505060405180910390fd5b7f00000000000000000000000000000000000000000000000000000000000000006001600160a01b0316632e1a7d4d826040518263ffffffff1660e01b815260040180828152602001915050600060405180830381600087803b158015611fc557600080fd5b505af1158015611fd9573d6000803e3d6000fd5b50505050611a8e84826132c6565b60608142811015612036576040805162461bcd60e51b8152602060048201526014602482015273105b1a5d18549bdd5d195c8e881156141254915160621b604482015290519081900360640190fd5b7f00000000000000000000000000000000000000000000000000000000000000006001600160a01b03168686600081811061206d57fe5b905060200201356001600160a01b03166001600160a01b0316146120d8576040805162461bcd60e51b815260206004820152601960248201527f416c697461526f757465723a20494e56414c49445f5041544800000000000000604482015290519081900360640190fd5b6121367f0000000000000000000000000000000000000000000000000000000000000000348888808060200260200160405190810160405280939291908181526020018383602002808284376000920191909152506134ae92505050565b9150868260018451038151811061214957fe5b6020026020010151101561218e5760405162461bcd60e51b815260040180806020018281038252602781526020018061460c6027913960400191505060405180910390fd5b7f00000000000000000000000000000000000000000000000000000000000000006001600160a01b031663d0e30db0836000815181106121ca57fe5b60200260200101516040518263ffffffff1660e01b81526004016000604051808303818588803b1580156121fd57600080fd5b505af1158015612211573d6000803e3d6000fd5b50505050507f00000000000000000000000000000000000000000000000000000000000000006001600160a01b031663a9059cbb6122767f00000000000000000000000000000000000000000000000000000000000000008989600081811061189957fe5b8460008151811061228357fe5b60200260200101516040518363ffffffff1660e01b815260040180836001600160a01b03166001600160a01b0316815260200182815260200192505050602060405180830381600087803b1580156122da57600080fd5b505af11580156122ee573d6000803e3d6000fd5b505050506040513d602081101561230457600080fd5b505161230c57fe5b61234b82878780806020026020016040519081016040528093929190818152602001838360200280828437600092019190915250899250613844915050565b5095945050505050565b6000610e2a8484846141f3565b606081428110156123b1576040805162461bcd60e51b8152602060048201526014602482015273105b1a5d18549bdd5d195c8e881156141254915160621b604482015290519081900360640190fd5b61240f7f000000000000000000000000000000000000000000000000000000000000000089888880806020026020016040519081016040528093929190818152602001838360200280828437600092019190915250613a8a92505050565b9150868260008151811061241f57fe5b602002602001015111156113af5760405162461bcd60e51b815260040180806020018281038252602381526020018061470a6023913960400191505060405180910390fd5b7f000000000000000000000000000000000000000000000000000000000000000081565b6000610e2a8484846142e3565b600081428110156124e4576040805162461bcd60e51b8152602060048201526014602482015273105b1a5d18549bdd5d195c8e881156141254915160621b604482015290519081900360640190fd5b612513887f000000000000000000000000000000000000000000000000000000000000000089898930896129c6565b604080516370a0823160e01b8152306004820152905191945061259792508a9187916001600160a01b038416916370a0823191602480820192602092909190829003018186803b15801561256657600080fd5b505afa15801561257a573d6000803e3d6000fd5b505050506040513d602081101561259057600080fd5b505161312e565b7f00000000000000000000000000000000000000000000000000000000000000006001600160a01b0316632e1a7d4d836040518263ffffffff1660e01b815260040180828152602001915050600060405180830381600087803b1580156125fd57600080fd5b505af1158015612611573d6000803e3d6000fd5b5050505061116f84836132c6565b804281101561266c576040805162461bcd60e51b8152602060048201526014602482015273105b1a5d18549bdd5d195c8e881156141254915160621b604482015290519081900360640190fd5b7f00000000000000000000000000000000000000000000000000000000000000006001600160a01b0316858560008181106126a357fe5b905060200201356001600160a01b03166001600160a01b03161461270e576040805162461bcd60e51b815260206004820152601960248201527f416c697461526f757465723a20494e56414c49445f5041544800000000000000604482015290519081900360640190fd5b60003490507f00000000000000000000000000000000000000000000000000000000000000006001600160a01b031663d0e30db0826040518263ffffffff1660e01b81526004016000604051808303818588803b15801561276e57600080fd5b505af1158015612782573d6000803e3d6000fd5b50505050507f00000000000000000000000000000000000000000000000000000000000000006001600160a01b031663a9059cbb6127e77f00000000000000000000000000000000000000000000000000000000000000008989600081811061189957fe5b836040518363ffffffff1660e01b815260040180836001600160a01b03166001600160a01b0316815260200182815260200192505050602060405180830381600087803b15801561283757600080fd5b505af115801561284b573d6000803e3d6000fd5b505050506040513d602081101561286157600080fd5b505161286957fe5b60008686600019810181811061287b57fe5b905060200201356001600160a01b03166001600160a01b03166370a08231866040518263ffffffff1660e01b815260040180826001600160a01b03166001600160a01b0316815260200191505060206040518083038186803b1580156128e057600080fd5b505afa1580156128f4573d6000803e3d6000fd5b505050506040513d602081101561290a57600080fd5b5051604080516020898102828101820190935289825292935061294c9290918a918a918291850190849080828437600092019190915250899250613e70915050565b87611a51828989600019810181811061296157fe5b905060200201356001600160a01b03166001600160a01b03166370a08231896040518263ffffffff1660e01b815260040180826001600160a01b03166001600160a01b0316815260200191505060206040518083038186803b158015611a1957600080fd5b6000808242811015612a16576040805162461bcd60e51b8152602060048201526014602482015273105b1a5d18549bdd5d195c8e881156141254915160621b604482015290519081900360640190fd5b6000612a437f00000000000000000000000000000000000000000000000000000000000000008c8c6135fa565b604080516323b872dd60e01b81523360048201526001600160a01b03831660248201819052604482018d9052915192935090916323b872dd916064808201926020929091908290030181600087803b158015612a9e57600080fd5b505af1158015612ab2573d6000803e3d6000fd5b505050506040513d6020811015612ac857600080fd5b5050604080517f89afcb440000000000000000000000000000000000000000000000000000000081526001600160a01b03888116600483015282516000938493928616926389afcb44926024808301939282900301818787803b158015612b2e57600080fd5b505af1158015612b42573d6000803e3d6000fd5b505050506040513d6040811015612b5857600080fd5b50805160209091015190925090506000612b728e8e61438f565b509050806001600160a01b03168e6001600160a01b031614612b95578183612b98565b82825b90975095508a871015612bdc5760405162461bcd60e51b815260040180806020018281038252602281526020018061472d6022913960400191505060405180910390fd5b89861015612c1b5760405162461bcd60e51b815260040180806020018281038252602281526020018061467e6022913960400191505060405180910390fd5b505050505097509795505050505050565b7f000000000000000000000000000000000000000000000000000000000000000081565b60606111a77f000000000000000000000000000000000000000000000000000000000000000084846134ae565b6000806000612ccd7f00000000000000000000000000000000000000000000000000000000000000008e7f00000000000000000000000000000000000000000000000000000000000000006135fa565b9050600087612cdc578c612ce0565b6000195b6040805163d505accf60e01b815233600482015230602482015260448101839052606481018c905260ff8a16608482015260a4810189905260c4810188905290519192506001600160a01b0384169163d505accf9160e48082019260009290919082900301818387803b158015612d5657600080fd5b505af1158015612d6a573d6000803e3d6000fd5b50505050612d7c8e8e8e8e8e8e610cfa565b909f909e509c50505050505050505050505050565b60608142811015612de0576040805162461bcd60e51b8152602060048201526014602482015273105b1a5d18549bdd5d195c8e881156141254915160621b604482015290519081900360640190fd5b7f00000000000000000000000000000000000000000000000000000000000000006001600160a01b031686866000818110612e1757fe5b905060200201356001600160a01b03166001600160a01b031614612e82576040805162461bcd60e51b815260206004820152601960248201527f416c697461526f757465723a20494e56414c49445f5041544800000000000000604482015290519081900360640190fd5b612ee07f000000000000000000000000000000000000000000000000000000000000000088888880806020026020016040519081016040528093929190818152602001838360200280828437600092019190915250613a8a92505050565b91503482600081518110612ef057fe5b60200260200101511115612f355760405162461bcd60e51b815260040180806020018281038252602381526020018061470a6023913960400191505060405180910390fd5b7f00000000000000000000000000000000000000000000000000000000000000006001600160a01b031663d0e30db083600081518110612f7157fe5b60200260200101516040518263ffffffff1660e01b81526004016000604051808303818588803b158015612fa457600080fd5b505af1158015612fb8573d6000803e3d6000fd5b50505050507f00000000000000000000000000000000000000000000000000000000000000006001600160a01b031663a9059cbb61301d7f00000000000000000000000000000000000000000000000000000000000000008989600081811061189957fe5b8460008151811061302a57fe5b60200260200101516040518363ffffffff1660e01b815260040180836001600160a01b03166001600160a01b0316815260200182815260200192505050602060405180830381600087803b15801561308157600080fd5b505af1158015613095573d6000803e3d6000fd5b505050506040513d60208110156130ab57600080fd5b50516130b357fe5b6130f282878780806020026020016040519081016040528093929190818152602001838360200280828437600092019190915250899250613844915050565b816000815181106130ff57fe5b602002602001015134111561234b5761234b338360008151811061311f57fe5b602002602001015134036132c6565b604080516001600160a01b038481166024830152604480830185905283518084039091018152606490920183526020820180517bffffffffffffffffffffffffffffffffffffffffffffffffffffffff167fa9059cbb00000000000000000000000000000000000000000000000000000000178152925182516000946060949389169392918291908083835b602083106131d95780518252601f1990920191602091820191016131ba565b6001836020036101000a0380198251168184511680821785525050505050509050019150506000604051808303816000865af19150503d806000811461323b576040519150601f19603f3d011682016040523d82523d6000602084013e613240565b606091505b509150915081801561326e57508051158061326e575080806020019051602081101561326b57600080fd5b50515b6132bf576040805162461bcd60e51b815260206004820152601f60248201527f5472616e7366657248656c7065723a205452414e534645525f4641494c454400604482015290519081900360640190fd5b5050505050565b604080516000808252602082019092526001600160a01b0384169083906040518082805190602001908083835b602083106133125780518252601f1990920191602091820191016132f3565b6001836020036101000a03801982511681845116808217855250505050505090500191505060006040518083038185875af1925050503d8060008114613374576040519150601f19603f3d011682016040523d82523d6000602084013e613379565b606091505b50509050806133b95760405162461bcd60e51b815260040180806020018281038252602381526020018061474f6023913960400191505060405180910390fd5b505050565b60008084116133fe5760405162461bcd60e51b81526004018080602001828103825260278152602001806146576027913960400191505060405180910390fd5b60008311801561340e5750600082115b6134495760405162461bcd60e51b81526004018080602001828103825260248152602001806146336024913960400191505060405180910390fd5b600061345d856103e663ffffffff61446d16565b90506000613471828563ffffffff61446d16565b905060006134978361348b886103e863ffffffff61446d16565b9063ffffffff6144d916565b90508082816134a257fe5b04979650505050505050565b6060600282511015613507576040805162461bcd60e51b815260206004820152601a60248201527f416c6974614c6962726172793a20494e56414c49445f50415448000000000000604482015290519081900360640190fd5b815167ffffffffffffffff8111801561351f57600080fd5b50604051908082528060200260200182016040528015613549578160200160208202803683370190505b509050828160008151811061355a57fe5b60200260200101818152505060005b60018351038110156135f2576000806135ac8786858151811061358857fe5b602002602001015187866001018151811061359f57fe5b6020026020010151614531565b915091506135ce8484815181106135bf57fe5b602002602001015183836133be565b8484600101815181106135dd57fe5b60209081029190910101525050600101613569565b509392505050565b6000806000613609858561438f565b604080516bffffffffffffffffffffffff19606094851b811660208084019190915293851b81166034830152825160288184030181526048830184528051908501207fff0000000000000000000000000000000000000000000000000000000000000060688401529a90941b9093166069840152607d8301989098527fd0d4c4cd0848c93cb4fd1f498d7013ee6bfb25783ea21593d5834f5d250ece66609d808401919091528851808403909101815260bd909201909752805196019590952095945050505050565b604080516001600160a01b0385811660248301528481166044830152606480830185905283518084039091018152608490920183526020820180517bffffffffffffffffffffffffffffffffffffffffffffffffffffffff166323b872dd60e01b17815292518251600094606094938a169392918291908083835b6020831061376c5780518252601f19909201916020918201910161374d565b6001836020036101000a0380198251168184511680821785525050505050509050019150506000604051808303816000865af19150503d80600081146137ce576040519150601f19603f3d011682016040523d82523d6000602084013e6137d3565b606091505b509150915081801561380157508051158061380157508080602001905160208110156137fe57600080fd5b50515b61383c5760405162461bcd60e51b81526004018080602001828103825260248152602001806147726024913960400191505060405180910390fd5b505050505050565b60005b6001835103811015613a845760008084838151811061386257fe5b602002602001015185846001018151811061387957fe5b6020026020010151915091506000613891838361438f565b50905060008785600101815181106138a557fe5b60200260200101519050600080836001600160a01b0316866001600160a01b0316146138d3578260006138d7565b6000835b91509150600060028a510388106138ee578861392f565b61392f7f0000000000000000000000000000000000000000000000000000000000000000878c8b6002018151811061392257fe5b60200260200101516135fa565b905061395c7f000000000000000000000000000000000000000000000000000000000000000088886135fa565b6001600160a01b031663022c0d9f84848460006040519080825280601f01601f191660200182016040528015613999576020820181803683370190505b506040518563ffffffff1660e01b815260040180858152602001848152602001836001600160a01b03166001600160a01b0316815260200180602001828103825283818151815260200191508051906020019080838360005b83811015613a0a5781810151838201526020016139f2565b50505050905090810190601f168015613a375780820380516001836020036101000a031916815260200191505b5095505050505050600060405180830381600087803b158015613a5957600080fd5b505af1158015613a6d573d6000803e3d6000fd5b505060019099019850613847975050505050505050565b50505050565b6060600282511015613ae3576040805162461bcd60e51b815260206004820152601a60248201527f416c6974614c6962726172793a20494e56414c49445f50415448000000000000604482015290519081900360640190fd5b815167ffffffffffffffff81118015613afb57600080fd5b50604051908082528060200260200182016040528015613b25578160200160208202803683370190505b5090508281600183510381518110613b3957fe5b60209081029190910101528151600019015b80156135f257600080613b7b87866001860381518110613b6757fe5b602002602001015187868151811061359f57fe5b91509150613b9d848481518110613b8e57fe5b602002602001015183836141f3565b846001850381518110613bac57fe5b6020908102919091010152505060001901613b4b565b604080517fe6a439050000000000000000000000000000000000000000000000000000000081526001600160a01b03898116600483015288811660248301529151600092839283927f00000000000000000000000000000000000000000000000000000000000000009092169163e6a4390591604480820192602092909190829003018186803b158015613c5557600080fd5b505afa158015613c69573d6000803e3d6000fd5b505050506040513d6020811015613c7f57600080fd5b50516001600160a01b03161415613d5257604080517f6b600d1c0000000000000000000000000000000000000000000000000000000081526001600160a01b038b811660048301528a811660248301526044820186905291517f000000000000000000000000000000000000000000000000000000000000000090921691636b600d1c916064808201926020929091908290030181600087803b158015613d2557600080fd5b505af1158015613d39573d6000803e3d6000fd5b505050506040513d6020811015613d4f57600080fd5b50505b600080613d807f00000000000000000000000000000000000000000000000000000000000000008c8c614531565b91509150816000148015613d92575080155b15613da257889350879250613e62565b6000613daf8a84846142e3565b9050888111613e025786811015613df75760405162461bcd60e51b815260040180806020018281038252602281526020018061467e6022913960400191505060405180910390fd5b899450925082613e60565b6000613e0f8a84866142e3565b90508a811115613e1b57fe5b88811015613e5a5760405162461bcd60e51b815260040180806020018281038252602281526020018061472d6022913960400191505060405180910390fd5b94508893505b505b505097509795505050505050565b60005b60018351038110156133b957600080848381518110613e8e57fe5b6020026020010151858460010181518110613ea557fe5b6020026020010151915091506000613ebd838361438f565b5090506000613eed7f000000000000000000000000000000000000000000000000000000000000000085856135fa565b9050600080600080846001600160a01b0316630902f1ac6040518163ffffffff1660e01b815260040160606040518083038186803b158015613f2e57600080fd5b505afa158015613f42573d6000803e3d6000fd5b505050506040513d6060811015613f5857600080fd5b5080516020909101516dffffffffffffffffffffffffffff91821693501690506000806001600160a01b038a811690891614613f95578284613f98565b83835b91509150613ff6828b6001600160a01b03166370a082318a6040518263ffffffff1660e01b815260040180826001600160a01b03166001600160a01b0316815260200191505060206040518083038186803b158015611a1957600080fd5b95506140038683836133be565b945050505050600080856001600160a01b0316886001600160a01b03161461402d57826000614031565b6000835b91509150600060028c51038a10614048578a61407c565b61407c7f0000000000000000000000000000000000000000000000000000000000000000898e8d6002018151811061392257fe5b60408051600080825260208201928390527f022c0d9f00000000000000000000000000000000000000000000000000000000835260248201878152604483018790526001600160a01b038086166064850152608060848501908152845160a48601819052969750908c169563022c0d9f958a958a958a9591949193919260c486019290918190849084905b8381101561411f578181015183820152602001614107565b50505050905090810190601f16801561414c5780820380516001836020036101000a031916815260200191505b5095505050505050600060405180830381600087803b15801561416e57600080fd5b505af1158015614182573d6000803e3d6000fd5b50506001909b019a50613e739950505050505050505050565b808203828111156111aa576040805162461bcd60e51b815260206004820152601560248201527f64732d6d6174682d7375622d756e646572666c6f770000000000000000000000604482015290519081900360640190fd5b60008084116142335760405162461bcd60e51b81526004018080602001828103825260288152602001806146c16028913960400191505060405180910390fd5b6000831180156142435750600082115b61427e5760405162461bcd60e51b81526004018080602001828103825260248152602001806146336024913960400191505060405180910390fd5b60006142a26103e8614296868863ffffffff61446d16565b9063ffffffff61446d16565b905060006142bc6103e6614296868963ffffffff61419b16565b90506142d960018284816142cc57fe5b049063ffffffff6144d916565b9695505050505050565b60008084116143235760405162461bcd60e51b81526004018080602001828103825260218152602001806146a06021913960400191505060405180910390fd5b6000831180156143335750600082115b61436e5760405162461bcd60e51b81526004018080602001828103825260248152602001806146336024913960400191505060405180910390fd5b8261437f858463ffffffff61446d16565b8161438657fe5b04949350505050565b600080826001600160a01b0316846001600160a01b031614156143e35760405162461bcd60e51b81526004018080602001828103825260218152602001806146e96021913960400191505060405180910390fd5b826001600160a01b0316846001600160a01b031610614403578284614406565b83835b90925090506001600160a01b038216614466576040805162461bcd60e51b815260206004820152601a60248201527f416c6974614c6962726172793a205a45524f5f41444452455353000000000000604482015290519081900360640190fd5b9250929050565b60008115806144885750508082028282828161448557fe5b04145b6111aa576040805162461bcd60e51b815260206004820152601460248201527f64732d6d6174682d6d756c2d6f766572666c6f77000000000000000000000000604482015290519081900360640190fd5b808201828110156111aa576040805162461bcd60e51b815260206004820152601460248201527f64732d6d6174682d6164642d6f766572666c6f77000000000000000000000000604482015290519081900360640190fd5b6000806000614540858561438f565b50905061454e8686866135fa565b5060008061455d8888886135fa565b6001600160a01b0316630902f1ac6040518163ffffffff1660e01b815260040160606040518083038186803b15801561459557600080fd5b505afa1580156145a9573d6000803e3d6000fd5b505050506040513d60608110156145bf57600080fd5b5080516020909101516dffffffffffffffffffffffffffff91821693501690506001600160a01b03878116908416146145f95780826145fc565b81815b9099909850965050505050505056fe416c697461526f757465723a20494e53554646494349454e545f4f55545055545f414d4f554e54416c6974614c6962726172793a20494e53554646494349454e545f4c4951554944495459416c6974614c6962726172793a20494e53554646494349454e545f494e5055545f414d4f554e54416c697461526f757465723a20494e53554646494349454e545f425f414d4f554e54416c6974614c6962726172793a20494e53554646494349454e545f414d4f554e54416c6974614c6962726172793a20494e53554646494349454e545f4f55545055545f414d4f554e54416c6974614c6962726172793a204944454e544943414c5f414444524553534553416c697461526f757465723a204558434553534956455f494e5055545f414d4f554e54416c697461526f757465723a20494e53554646494349454e545f415f414d4f554e545472616e7366657248656c7065723a204554485f5452414e534645525f4641494c45445472616e7366657248656c7065723a205452414e534645525f46524f4d5f4641494c4544a26469706673582212201fdf56626277b56fefcbe3d248fb0268c245607305fe4619618f3bf4b9bc21e764736f6c63430006060033",
  "immutableReferences": {
    "17": [
      {
        "length": 32,
        "start": 3883
      },
      {
        "length": 32,
        "start": 4098
      },
      {
        "length": 32,
        "start": 4481
      },
      {
        "length": 32,
        "start": 4538
      },
      {
        "length": 32,
        "start": 4862
      },
      {
        "length": 32,
        "start": 5367
      },
      {
        "length": 32,
        "start": 5650
      },
      {
        "length": 32,
        "start": 5876
      },
      {
        "length": 32,
        "start": 6253
      },
      {
        "length": 32,
        "start": 6949
      },
      {
        "length": 32,
        "start": 8413
      },
      {
        "length": 32,
        "start": 8778
      },
      {
        "length": 32,
        "start": 9142
      },
      {
        "length": 32,
        "start": 10171
      },
      {
        "length": 32,
        "start": 10781
      },
      {
        "length": 32,
        "start": 11310
      },
      {
        "length": 32,
        "start": 11351
      },
      {
        "length": 32,
        "start": 11399
      },
      {
        "length": 32,
        "start": 11911
      },
      {
        "length": 32,
        "start": 12273
      },
      {
        "length": 32,
        "start": 14579
      },
      {
        "length": 32,
        "start": 14646
      },
      {
        "length": 32,
        "start": 15372
      },
      {
        "length": 32,
        "start": 15578
      },
      {
        "length": 32,
        "start": 15706
      },
      {
        "length": 32,
        "start": 16071
      },
      {
        "length": 32,
        "start": 16461
      }
    ],
    "20": [
      {
        "length": 32,
        "start": 415
      },
      {
        "length": 32,
        "start": 3408
      },
      {
        "length": 32,
        "start": 3467
      },
      {
        "length": 32,
        "start": 3723
      },
      {
        "length": 32,
        "start": 4283
      },
      {
        "length": 32,
        "start": 5207
      },
      {
        "length": 32,
        "start": 5910
      },
      {
        "length": 32,
        "start": 6896
      },
      {
        "length": 32,
        "start": 6983
      },
      {
        "length": 32,
        "start": 7035
      },
      {
        "length": 32,
        "start": 7151
      },
      {
        "length": 32,
        "start": 7583
      },
      {
        "length": 32,
        "start": 7851
      },
      {
        "length": 32,
        "start": 8033
      },
      {
        "length": 32,
        "start": 8248
      },
      {
        "length": 32,
        "start": 8592
      },
      {
        "length": 32,
        "start": 8728
      },
      {
        "length": 32,
        "start": 9318
      },
      {
        "length": 32,
        "start": 9450
      },
      {
        "length": 32,
        "start": 9625
      },
      {
        "length": 32,
        "start": 9838
      },
      {
        "length": 32,
        "start": 10005
      },
      {
        "length": 32,
        "start": 10121
      },
      {
        "length": 32,
        "start": 11433
      },
      {
        "length": 32,
        "start": 11746
      },
      {
        "length": 32,
        "start": 12087
      },
      {
        "length": 32,
        "start": 12223
      }
    ]
  },
  "source": "pragma solidity =0.6.6;\n\n\nimport '@uniswap/lib/contracts/libraries/TransferHelper.sol';\nimport './interfaces/IAlitaFactory.sol';\nimport './interfaces/IAlitaRouter02.sol';\nimport './libraries/AlitaLibrary.sol';\nimport './libraries/SafeMath.sol';\nimport './interfaces/IERC20.sol';\nimport './interfaces/IWETH.sol';\n\ncontract AlitaRouter is IAlitaRouter02 {\n    using SafeMath for uint;\n\n    address public immutable override factory;\n    address public immutable override WETH;\n\n    modifier ensure(uint deadline) {\n        require(deadline >= block.timestamp, 'AlitaRouter: EXPIRED');\n        _;\n    }\n\n    constructor(address _factory, address _WETH) public {\n        factory = _factory;\n        WETH = _WETH;\n    }\n\n    receive() external payable {\n        assert(msg.sender == WETH); // only accept ETH via fallback from the WETH contract\n    }\n\n    // **** ADD LIQUIDITY ****\n    function _addLiquidity(\n        address tokenA,\n        address tokenB,\n        uint amountADesired,\n        uint amountBDesired,\n        uint amountAMin,\n        uint amountBMin,\n        uint startingSwapTime\n    ) internal virtual returns (uint amountA, uint amountB) {\n        // create the pair if it doesn't exist yet\n        if (IAlitaFactory(factory).getPair(tokenA, tokenB) == address(0)) {\n            IAlitaFactory(factory).createPair(tokenA, tokenB, startingSwapTime);\n        }\n        (uint reserveA, uint reserveB) = AlitaLibrary.getReserves(factory, tokenA, tokenB);\n        if (reserveA == 0 && reserveB == 0) {\n            (amountA, amountB) = (amountADesired, amountBDesired);\n        } else {\n            uint amountBOptimal = AlitaLibrary.quote(amountADesired, reserveA, reserveB);\n            if (amountBOptimal <= amountBDesired) {\n                require(amountBOptimal >= amountBMin, 'AlitaRouter: INSUFFICIENT_B_AMOUNT');\n                (amountA, amountB) = (amountADesired, amountBOptimal);\n            } else {\n                uint amountAOptimal = AlitaLibrary.quote(amountBDesired, reserveB, reserveA);\n                assert(amountAOptimal <= amountADesired);\n                require(amountAOptimal >= amountAMin, 'AlitaRouter: INSUFFICIENT_A_AMOUNT');\n                (amountA, amountB) = (amountAOptimal, amountBDesired);\n            }\n        }\n    }\n    function addLiquidity(\n        address tokenA,\n        address tokenB,\n        uint amountADesired,\n        uint amountBDesired,\n        uint amountAMin,\n        uint amountBMin,\n        address to,\n        uint deadline,\n        uint startingSwapTime\n    ) external virtual override ensure(deadline) returns (uint amountA, uint amountB, uint liquidity) {\n        (amountA, amountB) = _addLiquidity(tokenA, tokenB, amountADesired, amountBDesired, amountAMin, amountBMin, startingSwapTime);\n        address pair = AlitaLibrary.pairFor(factory, tokenA, tokenB);\n        TransferHelper.safeTransferFrom(tokenA, msg.sender, pair, amountA);\n        TransferHelper.safeTransferFrom(tokenB, msg.sender, pair, amountB);\n        liquidity = IAlitaPair(pair).mint(to);\n    }\n    function addLiquidityETH(\n        address token,\n        uint amountTokenDesired,\n        uint amountTokenMin,\n        uint amountETHMin,\n        address to,\n        uint deadline,\n        uint startingSwapTime\n    ) external virtual override payable ensure(deadline) returns (uint amountToken, uint amountETH, uint liquidity) {\n        (amountToken, amountETH) = _addLiquidity(\n            token,\n            WETH,\n            amountTokenDesired,\n            msg.value,\n            amountTokenMin,\n            amountETHMin,\n            startingSwapTime\n        );\n        address pair = AlitaLibrary.pairFor(factory, token, WETH);\n        TransferHelper.safeTransferFrom(token, msg.sender, pair, amountToken);\n        IWETH(WETH).deposit{value: amountETH}();\n        assert(IWETH(WETH).transfer(pair, amountETH));\n        liquidity = IAlitaPair(pair).mint(to);\n        // refund dust eth, if any\n        if (msg.value > amountETH) TransferHelper.safeTransferETH(msg.sender, msg.value - amountETH);\n    }\n\n    // **** REMOVE LIQUIDITY ****\n    function removeLiquidity(\n        address tokenA,\n        address tokenB,\n        uint liquidity,\n        uint amountAMin,\n        uint amountBMin,\n        address to,\n        uint deadline\n    ) public virtual override ensure(deadline) returns (uint amountA, uint amountB) {\n        address pair = AlitaLibrary.pairFor(factory, tokenA, tokenB);\n        IAlitaPair(pair).transferFrom(msg.sender, pair, liquidity); // send liquidity to pair\n        (uint amount0, uint amount1) = IAlitaPair(pair).burn(to);\n        (address token0,) = AlitaLibrary.sortTokens(tokenA, tokenB);\n        (amountA, amountB) = tokenA == token0 ? (amount0, amount1) : (amount1, amount0);\n        require(amountA >= amountAMin, 'AlitaRouter: INSUFFICIENT_A_AMOUNT');\n        require(amountB >= amountBMin, 'AlitaRouter: INSUFFICIENT_B_AMOUNT');\n    }\n    function removeLiquidityETH(\n        address token,\n        uint liquidity,\n        uint amountTokenMin,\n        uint amountETHMin,\n        address to,\n        uint deadline\n    ) public virtual override ensure(deadline) returns (uint amountToken, uint amountETH) {\n        (amountToken, amountETH) = removeLiquidity(\n            token,\n            WETH,\n            liquidity,\n            amountTokenMin,\n            amountETHMin,\n            address(this),\n            deadline\n        );\n        TransferHelper.safeTransfer(token, to, amountToken);\n        IWETH(WETH).withdraw(amountETH);\n        TransferHelper.safeTransferETH(to, amountETH);\n    }\n    function removeLiquidityWithPermit(\n        address tokenA,\n        address tokenB,\n        uint liquidity,\n        uint amountAMin,\n        uint amountBMin,\n        address to,\n        uint deadline,\n        bool approveMax, uint8 v, bytes32 r, bytes32 s\n    ) external virtual override returns (uint amountA, uint amountB) {\n        address pair = AlitaLibrary.pairFor(factory, tokenA, tokenB);\n        uint value = approveMax ? uint(-1) : liquidity;\n        IAlitaPair(pair).permit(msg.sender, address(this), value, deadline, v, r, s);\n        (amountA, amountB) = removeLiquidity(tokenA, tokenB, liquidity, amountAMin, amountBMin, to, deadline);\n    }\n    function removeLiquidityETHWithPermit(\n        address token,\n        uint liquidity,\n        uint amountTokenMin,\n        uint amountETHMin,\n        address to,\n        uint deadline,\n        bool approveMax, uint8 v, bytes32 r, bytes32 s\n    ) external virtual override returns (uint amountToken, uint amountETH) {\n        address pair = AlitaLibrary.pairFor(factory, token, WETH);\n        uint value = approveMax ? uint(-1) : liquidity;\n        IAlitaPair(pair).permit(msg.sender, address(this), value, deadline, v, r, s);\n        (amountToken, amountETH) = removeLiquidityETH(token, liquidity, amountTokenMin, amountETHMin, to, deadline);\n    }\n\n    // **** REMOVE LIQUIDITY (supporting fee-on-transfer tokens) ****\n    function removeLiquidityETHSupportingFeeOnTransferTokens(\n        address token,\n        uint liquidity,\n        uint amountTokenMin,\n        uint amountETHMin,\n        address to,\n        uint deadline\n    ) public virtual override ensure(deadline) returns (uint amountETH) {\n        (, amountETH) = removeLiquidity(\n            token,\n            WETH,\n            liquidity,\n            amountTokenMin,\n            amountETHMin,\n            address(this),\n            deadline\n        );\n        TransferHelper.safeTransfer(token, to, IERC20(token).balanceOf(address(this)));\n        IWETH(WETH).withdraw(amountETH);\n        TransferHelper.safeTransferETH(to, amountETH);\n    }\n    function removeLiquidityETHWithPermitSupportingFeeOnTransferTokens(\n        address token,\n        uint liquidity,\n        uint amountTokenMin,\n        uint amountETHMin,\n        address to,\n        uint deadline,\n        bool approveMax, uint8 v, bytes32 r, bytes32 s\n    ) external virtual override returns (uint amountETH) {\n        address pair = AlitaLibrary.pairFor(factory, token, WETH);\n        uint value = approveMax ? uint(-1) : liquidity;\n        IAlitaPair(pair).permit(msg.sender, address(this), value, deadline, v, r, s);\n        amountETH = removeLiquidityETHSupportingFeeOnTransferTokens(\n            token, liquidity, amountTokenMin, amountETHMin, to, deadline\n        );\n    }\n\n    // **** SWAP ****\n    // requires the initial amount to have already been sent to the first pair\n    function _swap(uint[] memory amounts, address[] memory path, address _to) internal virtual {\n        for (uint i; i < path.length - 1; i++) {\n            (address input, address output) = (path[i], path[i + 1]);\n            (address token0,) = AlitaLibrary.sortTokens(input, output);\n            uint amountOut = amounts[i + 1];\n            (uint amount0Out, uint amount1Out) = input == token0 ? (uint(0), amountOut) : (amountOut, uint(0));\n            address to = i < path.length - 2 ? AlitaLibrary.pairFor(factory, output, path[i + 2]) : _to;\n            IAlitaPair(AlitaLibrary.pairFor(factory, input, output)).swap(\n                amount0Out, amount1Out, to, new bytes(0)\n            );\n        }\n    }\n    function swapExactTokensForTokens(\n        uint amountIn,\n        uint amountOutMin,\n        address[] calldata path,\n        address to,\n        uint deadline\n    ) external virtual override ensure(deadline) returns (uint[] memory amounts) {\n        amounts = AlitaLibrary.getAmountsOut(factory, amountIn, path);\n        require(amounts[amounts.length - 1] >= amountOutMin, 'AlitaRouter: INSUFFICIENT_OUTPUT_AMOUNT');\n        TransferHelper.safeTransferFrom(\n            path[0], msg.sender, AlitaLibrary.pairFor(factory, path[0], path[1]), amounts[0]\n        );\n        _swap(amounts, path, to);\n    }\n    function swapTokensForExactTokens(\n        uint amountOut,\n        uint amountInMax,\n        address[] calldata path,\n        address to,\n        uint deadline\n    ) external virtual override ensure(deadline) returns (uint[] memory amounts) {\n        amounts = AlitaLibrary.getAmountsIn(factory, amountOut, path);\n        require(amounts[0] <= amountInMax, 'AlitaRouter: EXCESSIVE_INPUT_AMOUNT');\n        TransferHelper.safeTransferFrom(\n            path[0], msg.sender, AlitaLibrary.pairFor(factory, path[0], path[1]), amounts[0]\n        );\n        _swap(amounts, path, to);\n    }\n    function swapExactETHForTokens(uint amountOutMin, address[] calldata path, address to, uint deadline)\n        external\n        virtual\n        override\n        payable\n        ensure(deadline)\n        returns (uint[] memory amounts)\n    {\n        require(path[0] == WETH, 'AlitaRouter: INVALID_PATH');\n        amounts = AlitaLibrary.getAmountsOut(factory, msg.value, path);\n        require(amounts[amounts.length - 1] >= amountOutMin, 'AlitaRouter: INSUFFICIENT_OUTPUT_AMOUNT');\n        IWETH(WETH).deposit{value: amounts[0]}();\n        assert(IWETH(WETH).transfer(AlitaLibrary.pairFor(factory, path[0], path[1]), amounts[0]));\n        _swap(amounts, path, to);\n    }\n    function swapTokensForExactETH(uint amountOut, uint amountInMax, address[] calldata path, address to, uint deadline)\n        external\n        virtual\n        override\n        ensure(deadline)\n        returns (uint[] memory amounts)\n    {\n        require(path[path.length - 1] == WETH, 'AlitaRouter: INVALID_PATH');\n        amounts = AlitaLibrary.getAmountsIn(factory, amountOut, path);\n        require(amounts[0] <= amountInMax, 'AlitaRouter: EXCESSIVE_INPUT_AMOUNT');\n        TransferHelper.safeTransferFrom(\n            path[0], msg.sender, AlitaLibrary.pairFor(factory, path[0], path[1]), amounts[0]\n        );\n        _swap(amounts, path, address(this));\n        IWETH(WETH).withdraw(amounts[amounts.length - 1]);\n        TransferHelper.safeTransferETH(to, amounts[amounts.length - 1]);\n    }\n    function swapExactTokensForETH(uint amountIn, uint amountOutMin, address[] calldata path, address to, uint deadline)\n        external\n        virtual\n        override\n        ensure(deadline)\n        returns (uint[] memory amounts)\n    {\n        require(path[path.length - 1] == WETH, 'AlitaRouter: INVALID_PATH');\n        amounts = AlitaLibrary.getAmountsOut(factory, amountIn, path);\n        require(amounts[amounts.length - 1] >= amountOutMin, 'AlitaRouter: INSUFFICIENT_OUTPUT_AMOUNT');\n        TransferHelper.safeTransferFrom(\n            path[0], msg.sender, AlitaLibrary.pairFor(factory, path[0], path[1]), amounts[0]\n        );\n        _swap(amounts, path, address(this));\n        IWETH(WETH).withdraw(amounts[amounts.length - 1]);\n        TransferHelper.safeTransferETH(to, amounts[amounts.length - 1]);\n    }\n    function swapETHForExactTokens(uint amountOut, address[] calldata path, address to, uint deadline)\n        external\n        virtual\n        override\n        payable\n        ensure(deadline)\n        returns (uint[] memory amounts)\n    {\n        require(path[0] == WETH, 'AlitaRouter: INVALID_PATH');\n        amounts = AlitaLibrary.getAmountsIn(factory, amountOut, path);\n        require(amounts[0] <= msg.value, 'AlitaRouter: EXCESSIVE_INPUT_AMOUNT');\n        IWETH(WETH).deposit{value: amounts[0]}();\n        assert(IWETH(WETH).transfer(AlitaLibrary.pairFor(factory, path[0], path[1]), amounts[0]));\n        _swap(amounts, path, to);\n        // refund dust eth, if any\n        if (msg.value > amounts[0]) TransferHelper.safeTransferETH(msg.sender, msg.value - amounts[0]);\n    }\n\n    // **** SWAP (supporting fee-on-transfer tokens) ****\n    // requires the initial amount to have already been sent to the first pair\n    function _swapSupportingFeeOnTransferTokens(address[] memory path, address _to) internal virtual {\n        for (uint i; i < path.length - 1; i++) {\n            (address input, address output) = (path[i], path[i + 1]);\n            (address token0,) = AlitaLibrary.sortTokens(input, output);\n            IAlitaPair pair = IAlitaPair(AlitaLibrary.pairFor(factory, input, output));\n            uint amountInput;\n            uint amountOutput;\n            { // scope to avoid stack too deep errors\n            (uint reserve0, uint reserve1,) = pair.getReserves();\n            (uint reserveInput, uint reserveOutput) = input == token0 ? (reserve0, reserve1) : (reserve1, reserve0);\n            amountInput = IERC20(input).balanceOf(address(pair)).sub(reserveInput);\n            amountOutput = AlitaLibrary.getAmountOut(amountInput, reserveInput, reserveOutput);\n            }\n            (uint amount0Out, uint amount1Out) = input == token0 ? (uint(0), amountOutput) : (amountOutput, uint(0));\n            address to = i < path.length - 2 ? AlitaLibrary.pairFor(factory, output, path[i + 2]) : _to;\n            pair.swap(amount0Out, amount1Out, to, new bytes(0));\n        }\n    }\n    function swapExactTokensForTokensSupportingFeeOnTransferTokens(\n        uint amountIn,\n        uint amountOutMin,\n        address[] calldata path,\n        address to,\n        uint deadline\n    ) external virtual override ensure(deadline) {\n        TransferHelper.safeTransferFrom(\n            path[0], msg.sender, AlitaLibrary.pairFor(factory, path[0], path[1]), amountIn\n        );\n        uint balanceBefore = IERC20(path[path.length - 1]).balanceOf(to);\n        _swapSupportingFeeOnTransferTokens(path, to);\n        require(\n            IERC20(path[path.length - 1]).balanceOf(to).sub(balanceBefore) >= amountOutMin,\n            'AlitaRouter: INSUFFICIENT_OUTPUT_AMOUNT'\n        );\n    }\n    function swapExactETHForTokensSupportingFeeOnTransferTokens(\n        uint amountOutMin,\n        address[] calldata path,\n        address to,\n        uint deadline\n    )\n        external\n        virtual\n        override\n        payable\n        ensure(deadline)\n    {\n        require(path[0] == WETH, 'AlitaRouter: INVALID_PATH');\n        uint amountIn = msg.value;\n        IWETH(WETH).deposit{value: amountIn}();\n        assert(IWETH(WETH).transfer(AlitaLibrary.pairFor(factory, path[0], path[1]), amountIn));\n        uint balanceBefore = IERC20(path[path.length - 1]).balanceOf(to);\n        _swapSupportingFeeOnTransferTokens(path, to);\n        require(\n            IERC20(path[path.length - 1]).balanceOf(to).sub(balanceBefore) >= amountOutMin,\n            'AlitaRouter: INSUFFICIENT_OUTPUT_AMOUNT'\n        );\n    }\n    function swapExactTokensForETHSupportingFeeOnTransferTokens(\n        uint amountIn,\n        uint amountOutMin,\n        address[] calldata path,\n        address to,\n        uint deadline\n    )\n        external\n        virtual\n        override\n        ensure(deadline)\n    {\n        require(path[path.length - 1] == WETH, 'AlitaRouter: INVALID_PATH');\n        TransferHelper.safeTransferFrom(\n            path[0], msg.sender, AlitaLibrary.pairFor(factory, path[0], path[1]), amountIn\n        );\n        _swapSupportingFeeOnTransferTokens(path, address(this));\n        uint amountOut = IERC20(WETH).balanceOf(address(this));\n        require(amountOut >= amountOutMin, 'AlitaRouter: INSUFFICIENT_OUTPUT_AMOUNT');\n        IWETH(WETH).withdraw(amountOut);\n        TransferHelper.safeTransferETH(to, amountOut);\n    }\n\n    // **** LIBRARY FUNCTIONS ****\n    function quote(uint amountA, uint reserveA, uint reserveB) public pure virtual override returns (uint amountB) {\n        return AlitaLibrary.quote(amountA, reserveA, reserveB);\n    }\n\n    function getAmountOut(uint amountIn, uint reserveIn, uint reserveOut)\n        public\n        pure\n        virtual\n        override\n        returns (uint amountOut)\n    {\n        return AlitaLibrary.getAmountOut(amountIn, reserveIn, reserveOut);\n    }\n\n    function getAmountIn(uint amountOut, uint reserveIn, uint reserveOut)\n        public\n        pure\n        virtual\n        override\n        returns (uint amountIn)\n    {\n        return AlitaLibrary.getAmountIn(amountOut, reserveIn, reserveOut);\n    }\n\n    function getAmountsOut(uint amountIn, address[] memory path)\n        public\n        view\n        virtual\n        override\n        returns (uint[] memory amounts)\n    {\n        return AlitaLibrary.getAmountsOut(factory, amountIn, path);\n    }\n\n    function getAmountsIn(uint amountOut, address[] memory path)\n        public\n        view\n        virtual\n        override\n        returns (uint[] memory amounts)\n    {\n        return AlitaLibrary.getAmountsIn(factory, amountOut, path);\n    }\n}\n",
  "sourcePath": "/home/luandt/workplace/vndai-defi/swap-periphery/contracts/AlitaRouter.sol",
  "compiler": {
    "name": "solc",
    "version": "0.6.6+commit.6c089d02.Emscripten.clang"
  },
  "schemaVersion": "3.4.1",
  "updatedAt": "2021-06-26T10:16:01.955Z",
  "devdoc": {
    "methods": {}
  },
  "userdoc": {
    "methods": {}
  }
}