{
  "contractName": "ExampleSlidingWindowOracle",
  "abi": [
    {
      "inputs": [
        {
          "internalType": "address",
          "name": "factory_",
          "type": "address"
        },
        {
          "internalType": "uint256",
          "name": "windowSize_",
          "type": "uint256"
        },
        {
          "internalType": "uint8",
          "name": "granularity_",
          "type": "uint8"
        }
      ],
      "stateMutability": "nonpayable",
      "type": "constructor"
    },
    {
      "inputs": [],
      "name": "factory",
      "outputs": [
        {
          "internalType": "address",
          "name": "",
          "type": "address"
        }
      ],
      "stateMutability": "view",
      "type": "function"
    },
    {
      "inputs": [],
      "name": "granularity",
      "outputs": [
        {
          "internalType": "uint8",
          "name": "",
          "type": "uint8"
        }
      ],
      "stateMutability": "view",
      "type": "function"
    },
    {
      "inputs": [
        {
          "internalType": "address",
          "name": "",
          "type": "address"
        },
        {
          "internalType": "uint256",
          "name": "",
          "type": "uint256"
        }
      ],
      "name": "pairObservations",
      "outputs": [
        {
          "internalType": "uint256",
          "name": "timestamp",
          "type": "uint256"
        },
        {
          "internalType": "uint256",
          "name": "price0Cumulative",
          "type": "uint256"
        },
        {
          "internalType": "uint256",
          "name": "price1Cumulative",
          "type": "uint256"
        }
      ],
      "stateMutability": "view",
      "type": "function"
    },
    {
      "inputs": [],
      "name": "periodSize",
      "outputs": [
        {
          "internalType": "uint256",
          "name": "",
          "type": "uint256"
        }
      ],
      "stateMutability": "view",
      "type": "function"
    },
    {
      "inputs": [],
      "name": "windowSize",
      "outputs": [
        {
          "internalType": "uint256",
          "name": "",
          "type": "uint256"
        }
      ],
      "stateMutability": "view",
      "type": "function"
    },
    {
      "inputs": [
        {
          "internalType": "uint256",
          "name": "timestamp",
          "type": "uint256"
        }
      ],
      "name": "observationIndexOf",
      "outputs": [
        {
          "internalType": "uint8",
          "name": "index",
          "type": "uint8"
        }
      ],
      "stateMutability": "view",
      "type": "function"
    },
    {
      "inputs": [
        {
          "internalType": "address",
          "name": "tokenA",
          "type": "address"
        },
        {
          "internalType": "address",
          "name": "tokenB",
          "type": "address"
        }
      ],
      "name": "update",
      "outputs": [],
      "stateMutability": "nonpayable",
      "type": "function"
    },
    {
      "inputs": [
        {
          "internalType": "address",
          "name": "tokenIn",
          "type": "address"
        },
        {
          "internalType": "uint256",
          "name": "amountIn",
          "type": "uint256"
        },
        {
          "internalType": "address",
          "name": "tokenOut",
          "type": "address"
        }
      ],
      "name": "consult",
      "outputs": [
        {
          "internalType": "uint256",
          "name": "amountOut",
          "type": "uint256"
        }
      ],
      "stateMutability": "view",
      "type": "function"
    }
  ],
  "bytecode": "0x61010060405234801561001157600080fd5b50604051610e88380380610e888339818101604052606081101561003457600080fd5b5080516020820151604090920151909190600160ff82161161009d576040805162461bcd60e51b815260206004820181905260248201527f536c6964696e6757696e646f774f7261636c653a204752414e554c4152495459604482015290519081900360640190fd5b8160ff82168082816100ab57fe5b0460e081905202146100ee5760405162461bcd60e51b8152600401808060200182810382526030815260200180610e586030913960400191505060405180910390fd5b606083901b6001600160601b03191660805260a082905260f881901b7fff000000000000000000000000000000000000000000000000000000000000001660c05260e0516001600160a01b039093169260ff90911690610cb961019f600039806102a952806104eb528061053e528061059e5250806101c05280610448528061056a52806106aa5250806101e4528061024a52806102cd52508061020e52806103da52806104035250610cb96000f3fe608060405234801561001057600080fd5b50600436106100885760003560e01c8063c45a01551161005b578063c45a015514610145578063c640752d14610169578063dbaad32f14610199578063e4463eb2146101b657610088565b8063556f0dc71461008d5780638a14117a146100ab5780638c86f1e4146100c5578063bfcc8e42146100fb575b600080fd5b6100956101be565b6040805160ff9092168252519081900360200190f35b6100b36101e2565b60408051918252519081900360200190f35b6100b3600480360360608110156100db57600080fd5b506001600160a01b03813581169160208101359160409091013516610206565b6101276004803603604081101561011157600080fd5b506001600160a01b038135169060200135610399565b60408051938452602084019290925282820152519081900360600190f35b61014d6103d8565b604080516001600160a01b039092168252519081900360200190f35b6101976004803603604081101561017f57600080fd5b506001600160a01b03813581169160200135166103fc565b005b610095600480360360208110156101af57600080fd5b5035610539565b6100b361059c565b7f000000000000000000000000000000000000000000000000000000000000000081565b7f000000000000000000000000000000000000000000000000000000000000000081565b6000806102347f000000000000000000000000000000000000000000000000000000000000000086856105c0565b9050600061024182610698565b805490915042037f00000000000000000000000000000000000000000000000000000000000000008111156102a75760405162461bcd60e51b8152600401808060200182810382526033815260200180610be16033913960400191505060405180910390fd5b7f00000000000000000000000000000000000000000000000000000000000000006002027f00000000000000000000000000000000000000000000000000000000000000000381101561032b5760405162461bcd60e51b815260040180806020018281038252602c815260200180610c14602c913960400191505060405180910390fd5b60008061033785610726565b509150915060006103488a89610927565b509050896001600160a01b0316816001600160a01b0316141561038257610375856001015484868c610a05565b9650505050505050610392565b610375856002015483868c610a05565b9392505050565b600060205281600052604060002081815481106103b257fe5b600091825260209091206003909102018054600182015460029092015490935090915083565b7f000000000000000000000000000000000000000000000000000000000000000081565b60006104297f000000000000000000000000000000000000000000000000000000000000000084846105c0565b6001600160a01b0381166000908152602081905260409020549091505b7f000000000000000000000000000000000000000000000000000000000000000060ff1681101561049a576001600160a01b0382166000908152602081905260408120805460019081018255915201610446565b5060006104a642610539565b6001600160a01b03831660009081526020819052604081208054929350909160ff84169081106104d257fe5b60009182526020909120600390910201805490915042037f00000000000000000000000000000000000000000000000000000000000000008111156105315760008061051d86610726565b504286556001860191909155600285015550505b505050505050565b6000807f0000000000000000000000000000000000000000000000000000000000000000838161056557fe5b0490507f000000000000000000000000000000000000000000000000000000000000000060ff16818161059457fe5b069392505050565b7f000000000000000000000000000000000000000000000000000000000000000081565b60008060006105cf8585610927565b604080516bffffffffffffffffffffffff19606094851b811660208084019190915293851b81166034830152825160288184030181526048830184528051908501207fff0000000000000000000000000000000000000000000000000000000000000060688401529a90941b9093166069840152607d8301989098527fd0d4c4cd0848c93cb4fd1f498d7013ee6bfb25783ea21593d5834f5d250ece66609d808401919091528851808403909101815260bd909201909752805196019590952095945050505050565b6000806106a442610539565b905060007f000000000000000000000000000000000000000000000000000000000000000060ff168260010160ff16816106da57fe5b069050600080856001600160a01b03166001600160a01b031681526020019081526020016000208160ff168154811061070f57fe5b906000526020600020906003020192505050919050565b6000806000610733610a63565b9050836001600160a01b0316635909c0d56040518163ffffffff1660e01b815260040160206040518083038186803b15801561076e57600080fd5b505afa158015610782573d6000803e3d6000fd5b505050506040513d602081101561079857600080fd5b5051604080517f5a3d549300000000000000000000000000000000000000000000000000000000815290519194506001600160a01b03861691635a3d549391600480820192602092909190829003018186803b1580156107f757600080fd5b505afa15801561080b573d6000803e3d6000fd5b505050506040513d602081101561082157600080fd5b5051604080517f0902f1ac0000000000000000000000000000000000000000000000000000000081529051919350600091829182916001600160a01b03891691630902f1ac916004808301926060929190829003018186803b15801561088657600080fd5b505afa15801561089a573d6000803e3d6000fd5b505050506040513d60608110156108b057600080fd5b5080516020820151604090920151909450909250905063ffffffff8082169085161461091d5780840363ffffffff81166108ea8486610a6d565b516001600160e01b031602969096019563ffffffff811661090b8585610a6d565b516001600160e01b0316029590950194505b5050509193909250565b600080826001600160a01b0316846001600160a01b0316141561097b5760405162461bcd60e51b8152600401808060200182810382526021815260200180610c406021913960400191505060405180910390fd5b826001600160a01b0316846001600160a01b03161061099b57828461099e565b83835b90925090506001600160a01b0382166109fe576040805162461bcd60e51b815260206004820152601a60248201527f416c6974614c6962726172793a205a45524f5f41444452455353000000000000604482015290519081900360640190fd5b9250929050565b6000610a0f610bbb565b60405180602001604052808588880381610a2557fe5b046001600160e01b031690529050610a45610a408285610b36565b610bb4565b71ffffffffffffffffffffffffffffffffffff169695505050505050565b63ffffffff421690565b610a75610bbb565b6000826dffffffffffffffffffffffffffff1611610ada576040805162461bcd60e51b815260206004820152601760248201527f4669786564506f696e743a204449565f42595f5a45524f000000000000000000604482015290519081900360640190fd5b6040805160208101909152806dffffffffffffffffffffffffffff84167bffffffffffffffffffffffffffff0000000000000000000000000000607087901b1681610b2157fe5b046001600160e01b0316815250905092915050565b610b3e610bcd565b6000821580610b6457505082516001600160e01b031682810290838281610b6157fe5b04145b610b9f5760405162461bcd60e51b8152600401808060200182810382526023815260200180610c616023913960400191505060405180910390fd5b60408051602081019091529081529392505050565b5160701c90565b60408051602081019091526000815290565b604051806020016040528060008152509056fe536c6964696e6757696e646f774f7261636c653a204d495353494e475f484953544f524943414c5f4f42534552564154494f4e536c6964696e6757696e646f774f7261636c653a20554e45585045435445445f54494d455f454c4150534544416c6974614c6962726172793a204944454e544943414c5f4144445245535345534669786564506f696e743a204d554c5449504c49434154494f4e5f4f564552464c4f57a2646970667358221220fd56b9bf4930a05b90d5f175a3293640769b713a95d502eae3a8d0e9aff8ec8e64736f6c63430006060033536c6964696e6757696e646f774f7261636c653a2057494e444f575f4e4f545f4556454e4c595f444956495349424c45",
  "immutableReferences": {
    "2701": [
      {
        "length": 32,
        "start": 526
      },
      {
        "length": 32,
        "start": 986
      },
      {
        "length": 32,
        "start": 1027
      }
    ],
    "2703": [
      {
        "length": 32,
        "start": 484
      },
      {
        "length": 32,
        "start": 586
      },
      {
        "length": 32,
        "start": 717
      }
    ],
    "2705": [
      {
        "length": 32,
        "start": 448
      },
      {
        "length": 32,
        "start": 1096
      },
      {
        "length": 32,
        "start": 1386
      },
      {
        "length": 32,
        "start": 1706
      }
    ],
    "2707": [
      {
        "length": 32,
        "start": 681
      },
      {
        "length": 32,
        "start": 1259
      },
      {
        "length": 32,
        "start": 1342
      },
      {
        "length": 32,
        "start": 1438
      }
    ]
  },
  "source": "pragma solidity =0.6.6;\n\n// import '@uniswap/v2-core/contracts/interfaces/IAlitaFactory.sol';\nimport '../interfaces/IAlitaPair.sol';\nimport '@uniswap/lib/contracts/libraries/FixedPoint.sol';\n// import '../interfaces/IAlitaFactory.sol';\nimport '../interfaces/IAlitaFactory.sol';\nimport '../libraries/SafeMath.sol';\nimport '../libraries/AlitaLibrary.sol';\nimport '../libraries/AlitaOracleLibrary.sol';\n\n// sliding window oracle that uses observations collected over a window to provide moving price averages in the past\n// `windowSize` with a precision of `windowSize / granularity`\n// note this is a singleton oracle and only needs to be deployed once per desired parameters, which\n// differs from the simple oracle which must be deployed once per pair.\ncontract ExampleSlidingWindowOracle {\n    using FixedPoint for *;\n    using SafeMath for uint;\n\n    struct Observation {\n        uint timestamp;\n        uint price0Cumulative;\n        uint price1Cumulative;\n    }\n\n    address public immutable factory;\n    // the desired amount of time over which the moving average should be computed, e.g. 24 hours\n    uint public immutable windowSize;\n    // the number of observations stored for each pair, i.e. how many price observations are stored for the window.\n    // as granularity increases from 1, more frequent updates are needed, but moving averages become more precise.\n    // averages are computed over intervals with sizes in the range:\n    //   [windowSize - (windowSize / granularity) * 2, windowSize]\n    // e.g. if the window size is 24 hours, and the granularity is 24, the oracle will return the average price for\n    //   the period:\n    //   [now - [22 hours, 24 hours], now]\n    uint8 public immutable granularity;\n    // this is redundant with granularity and windowSize, but stored for gas savings & informational purposes.\n    uint public immutable periodSize;\n\n    // mapping from pair address to a list of price observations of that pair\n    mapping(address => Observation[]) public pairObservations;\n\n    constructor(address factory_, uint windowSize_, uint8 granularity_) public {\n        require(granularity_ > 1, 'SlidingWindowOracle: GRANULARITY');\n        require(\n            (periodSize = windowSize_ / granularity_) * granularity_ == windowSize_,\n            'SlidingWindowOracle: WINDOW_NOT_EVENLY_DIVISIBLE'\n        );\n        factory = factory_;\n        windowSize = windowSize_;\n        granularity = granularity_;\n    }\n\n    // returns the index of the observation corresponding to the given timestamp\n    function observationIndexOf(uint timestamp) public view returns (uint8 index) {\n        uint epochPeriod = timestamp / periodSize;\n        return uint8(epochPeriod % granularity);\n    }\n\n    // returns the observation from the oldest epoch (at the beginning of the window) relative to the current time\n    function getFirstObservationInWindow(address pair) private view returns (Observation storage firstObservation) {\n        uint8 observationIndex = observationIndexOf(block.timestamp);\n        // no overflow issue. if observationIndex + 1 overflows, result is still zero.\n        uint8 firstObservationIndex = (observationIndex + 1) % granularity;\n        firstObservation = pairObservations[pair][firstObservationIndex];\n    }\n\n    // update the cumulative price for the observation at the current timestamp. each observation is updated at most\n    // once per epoch period.\n    function update(address tokenA, address tokenB) external {\n        address pair = AlitaLibrary.pairFor(factory, tokenA, tokenB);\n\n        // populate the array with empty observations (first call only)\n        for (uint i = pairObservations[pair].length; i < granularity; i++) {\n            pairObservations[pair].push();\n        }\n\n        // get the observation for the current period\n        uint8 observationIndex = observationIndexOf(block.timestamp);\n        Observation storage observation = pairObservations[pair][observationIndex];\n\n        // we only want to commit updates once per period (i.e. windowSize / granularity)\n        uint timeElapsed = block.timestamp - observation.timestamp;\n        if (timeElapsed > periodSize) {\n            (uint price0Cumulative, uint price1Cumulative,) = AlitaOracleLibrary.currentCumulativePrices(pair);\n            observation.timestamp = block.timestamp;\n            observation.price0Cumulative = price0Cumulative;\n            observation.price1Cumulative = price1Cumulative;\n        }\n    }\n\n    // given the cumulative prices of the start and end of a period, and the length of the period, compute the average\n    // price in terms of how much amount out is received for the amount in\n    function computeAmountOut(\n        uint priceCumulativeStart, uint priceCumulativeEnd,\n        uint timeElapsed, uint amountIn\n    ) private pure returns (uint amountOut) {\n        // overflow is desired.\n        FixedPoint.uq112x112 memory priceAverage = FixedPoint.uq112x112(\n            uint224((priceCumulativeEnd - priceCumulativeStart) / timeElapsed)\n        );\n        amountOut = priceAverage.mul(amountIn).decode144();\n    }\n\n    // returns the amount out corresponding to the amount in for a given token using the moving average over the time\n    // range [now - [windowSize, windowSize - periodSize * 2], now]\n    // update must have been called for the bucket corresponding to timestamp `now - windowSize`\n    function consult(address tokenIn, uint amountIn, address tokenOut) external view returns (uint amountOut) {\n        address pair = AlitaLibrary.pairFor(factory, tokenIn, tokenOut);\n        Observation storage firstObservation = getFirstObservationInWindow(pair);\n\n        uint timeElapsed = block.timestamp - firstObservation.timestamp;\n        require(timeElapsed <= windowSize, 'SlidingWindowOracle: MISSING_HISTORICAL_OBSERVATION');\n        // should never happen.\n        require(timeElapsed >= windowSize - periodSize * 2, 'SlidingWindowOracle: UNEXPECTED_TIME_ELAPSED');\n\n        (uint price0Cumulative, uint price1Cumulative,) = AlitaOracleLibrary.currentCumulativePrices(pair);\n        (address token0,) = AlitaLibrary.sortTokens(tokenIn, tokenOut);\n\n        if (token0 == tokenIn) {\n            return computeAmountOut(firstObservation.price0Cumulative, price0Cumulative, timeElapsed, amountIn);\n        } else {\n            return computeAmountOut(firstObservation.price1Cumulative, price1Cumulative, timeElapsed, amountIn);\n        }\n    }\n}\n",
  "sourcePath": "/home/luandt/workplace/vndai-defi/swap-periphery/contracts/examples/ExampleSlidingWindowOracle.sol",
  "compiler": {
    "name": "solc",
    "version": "0.6.6+commit.6c089d02.Emscripten.clang"
  },
  "schemaVersion": "3.4.1",
  "updatedAt": "2021-06-26T10:16:02.002Z",
  "devdoc": {
    "methods": {}
  },
  "userdoc": {
    "methods": {}
  }
}