{
  "contractName": "ExampleFlashSwap",
  "abi": [
    {
      "inputs": [
        {
          "internalType": "address",
          "name": "_factory",
          "type": "address"
        },
        {
          "internalType": "address",
          "name": "_factoryV1",
          "type": "address"
        },
        {
          "internalType": "address",
          "name": "router",
          "type": "address"
        }
      ],
      "stateMutability": "nonpayable",
      "type": "constructor"
    },
    {
      "stateMutability": "payable",
      "type": "receive"
    },
    {
      "inputs": [
        {
          "internalType": "address",
          "name": "sender",
          "type": "address"
        },
        {
          "internalType": "uint256",
          "name": "amount0",
          "type": "uint256"
        },
        {
          "internalType": "uint256",
          "name": "amount1",
          "type": "uint256"
        },
        {
          "internalType": "bytes",
          "name": "data",
          "type": "bytes"
        }
      ],
      "name": "AlitaCall",
      "outputs": [],
      "stateMutability": "nonpayable",
      "type": "function"
    }
  ],
  "bytecode": "0x60e060405234801561001057600080fd5b506040516112b73803806112b78339818101604052606081101561003357600080fd5b5080516020808301516040938401516001600160601b0319606083811b821660805285901b1660a05284516315ab88c960e31b815294519394919390926001600160a01b0384169263ad5c46489260048083019392829003018186803b15801561009c57600080fd5b505afa1580156100b0573d6000803e3d6000fd5b505050506040513d60208110156100c657600080fd5b50516001600160601b031960609190911b1660c05250505060805160601c60a05160601c60c05160601c6111776101406000398061029352806102c8528061030d528061035c52806103ae5280610676528061070c52806108a15250806101dc528061062f528061098952508061042f52506111776000f3fe6080604052600436106100225760003560e01c8063d3c6e4901461002e57610029565b3661002957005b600080fd5b34801561003a57600080fd5b506100c76004803603608081101561005157600080fd5b6001600160a01b03823516916020810135916040820135919081019060808101606082013564010000000081111561008857600080fd5b82018360208201111561009a57600080fd5b803590602001918460018302840111640100000000831117156100bc57600080fd5b5090925090506100c9565b005b60408051600280825260608083018452926020830190803683370190505090506000806000336001600160a01b0316630dfe16816040518163ffffffff1660e01b815260040160206040518083038186803b15801561012757600080fd5b505afa15801561013b573d6000803e3d6000fd5b505050506040513d602081101561015157600080fd5b5051604080517fd21220a70000000000000000000000000000000000000000000000000000000081529051919250600091339163d21220a7916004808301926020929190829003018186803b1580156101a957600080fd5b505afa1580156101bd573d6000803e3d6000fd5b505050506040513d60208110156101d357600080fd5b505190506102027f00000000000000000000000000000000000000000000000000000000000000008383610ae5565b6001600160a01b0316336001600160a01b03161461021c57fe5b881580610227575087155b61022d57fe5b8815610239578061023b565b815b8560008151811061024857fe5b6001600160a01b0390921660209283029190910190910152881561026c578161026e565b805b8560018151811061027b57fe5b6001600160a01b0392831660209182029290920101527f00000000000000000000000000000000000000000000000000000000000000008116908316146102c257886102c4565b875b93507f00000000000000000000000000000000000000000000000000000000000000006001600160a01b0316826001600160a01b0316146103055787610307565b885b925050507f00000000000000000000000000000000000000000000000000000000000000006001600160a01b03168360008151811061034257fe5b60200260200101516001600160a01b031614806103a457507f00000000000000000000000000000000000000000000000000000000000000006001600160a01b03168360018151811061039157fe5b60200260200101516001600160a01b0316145b6103aa57fe5b60007f00000000000000000000000000000000000000000000000000000000000000006001600160a01b0316846000815181106103e357fe5b60200260200101516001600160a01b031614610413578360008151811061040657fe5b6020026020010151610429565b8360018151811061042057fe5b60200260200101515b905060007f00000000000000000000000000000000000000000000000000000000000000006001600160a01b03166306f2bf62836040518263ffffffff1660e01b815260040180826001600160a01b03166001600160a01b0316815260200191505060206040518083038186803b1580156104a357600080fd5b505afa1580156104b7573d6000803e3d6000fd5b505050506040513d60208110156104cd57600080fd5b505190508315610850576000878760208110156104e957600080fd5b50604080517f095ea7b30000000000000000000000000000000000000000000000000000000081526001600160a01b038581166004830152602482018990529151923593509085169163095ea7b3916044808201926020929091908290030181600087803b15801561055a57600080fd5b505af115801561056e573d6000803e3d6000fd5b505050506040513d602081101561058457600080fd5b5050604080517f95e3c50b0000000000000000000000000000000000000000000000000000000081526004810187905260248101839052600019604482015290516000916001600160a01b038516916395e3c50b9160648082019260209290919082900301818787803b1580156105fa57600080fd5b505af115801561060e573d6000803e3d6000fd5b505050506040513d602081101561062457600080fd5b5051905060006106557f0000000000000000000000000000000000000000000000000000000000000000888a610bbd565b60008151811061066157fe5b6020026020010151905080821161067457fe5b7f00000000000000000000000000000000000000000000000000000000000000006001600160a01b031663d0e30db0826040518263ffffffff1660e01b81526004016000604051808303818588803b1580156106cf57600080fd5b505af11580156106e3573d6000803e3d6000fd5b50506040805163a9059cbb60e01b81523360048201526024810186905290516001600160a01b037f000000000000000000000000000000000000000000000000000000000000000016945063a9059cbb9350604480830193506020928290030181600087803b15801561075557600080fd5b505af1158015610769573d6000803e3d6000fd5b505050506040513d602081101561077f57600080fd5b505161078757fe5b604080516000808252602082019092526001600160a01b038f1690838503906040518082805190602001908083835b602083106107d55780518252601f1990920191602091820191016107b6565b6001836020036101000a03801982511681845116808217855250505050505090500191505060006040518083038185875af1925050503d8060008114610837576040519150601f19603f3d011682016040523d82523d6000602084013e61083c565b606091505b505090508061084757fe5b50505050610ad9565b60008787602081101561086257600080fd5b50604080517f2e1a7d4d000000000000000000000000000000000000000000000000000000008152600481018790529051913592506001600160a01b037f00000000000000000000000000000000000000000000000000000000000000001691632e1a7d4d9160248082019260009290919082900301818387803b1580156108e957600080fd5b505af11580156108fd573d6000803e3d6000fd5b505050506000826001600160a01b031663f39b5b9b86846000196040518463ffffffff1660e01b815260040180838152602001828152602001925050506020604051808303818588803b15801561095357600080fd5b505af1158015610967573d6000803e3d6000fd5b50505050506040513d602081101561097e57600080fd5b5051905060006109af7f0000000000000000000000000000000000000000000000000000000000000000878a610bbd565b6000815181106109bb57fe5b602002602001015190508082116109ce57fe5b6040805163a9059cbb60e01b81523360048201526024810183905290516001600160a01b0387169163a9059cbb9160448083019260209291908290030181600087803b158015610a1d57600080fd5b505af1158015610a31573d6000803e3d6000fd5b505050506040513d6020811015610a4757600080fd5b5051610a4f57fe5b6040805163a9059cbb60e01b81526001600160a01b038f81166004830152838503602483015291519187169163a9059cbb916044808201926020929091908290030181600087803b158015610aa357600080fd5b505af1158015610ab7573d6000803e3d6000fd5b505050506040513d6020811015610acd57600080fd5b5051610ad557fe5b5050505b50505050505050505050565b6000806000610af48585610d0a565b604080516bffffffffffffffffffffffff19606094851b811660208084019190915293851b81166034830152825160288184030181526048830184528051908501207fff0000000000000000000000000000000000000000000000000000000000000060688401529a90941b9093166069840152607d8301989098527fd0d4c4cd0848c93cb4fd1f498d7013ee6bfb25783ea21593d5834f5d250ece66609d808401919091528851808403909101815260bd909201909752805196019590952095945050505050565b6060600282511015610c16576040805162461bcd60e51b815260206004820152601a60248201527f416c6974614c6962726172793a20494e56414c49445f50415448000000000000604482015290519081900360640190fd5b815167ffffffffffffffff81118015610c2e57600080fd5b50604051908082528060200260200182016040528015610c58578160200160208202803683370190505b5090508281600183510381518110610c6c57fe5b60209081029190910101528151600019015b8015610d0257600080610cbb87866001860381518110610c9a57fe5b6020026020010151878681518110610cae57fe5b6020026020010151610de8565b91509150610cdd848481518110610cce57fe5b60200260200101518383610ec2565b846001850381518110610cec57fe5b6020908102919091010152505060001901610c7e565b509392505050565b600080826001600160a01b0316846001600160a01b03161415610d5e5760405162461bcd60e51b81526004018080602001828103825260218152602001806111216021913960400191505060405180910390fd5b826001600160a01b0316846001600160a01b031610610d7e578284610d81565b83835b90925090506001600160a01b038216610de1576040805162461bcd60e51b815260206004820152601a60248201527f416c6974614c6962726172793a205a45524f5f41444452455353000000000000604482015290519081900360640190fd5b9250929050565b6000806000610df78585610d0a565b509050610e05868686610ae5565b50600080610e14888888610ae5565b6001600160a01b0316630902f1ac6040518163ffffffff1660e01b815260040160606040518083038186803b158015610e4c57600080fd5b505afa158015610e60573d6000803e3d6000fd5b505050506040513d6060811015610e7657600080fd5b5080516020909101516dffffffffffffffffffffffffffff91821693501690506001600160a01b0387811690841614610eb0578082610eb3565b81815b90999098509650505050505050565b6000808411610f025760405162461bcd60e51b81526004018080602001828103825260288152602001806110f96028913960400191505060405180910390fd5b600083118015610f125750600082115b610f4d5760405162461bcd60e51b81526004018080602001828103825260248152602001806110d56024913960400191505060405180910390fd5b6000610f716103e8610f65868863ffffffff610fb216565b9063ffffffff610fb216565b90506000610f8b6103e6610f65868963ffffffff61102416565b9050610fa86001828481610f9b57fe5b049063ffffffff61107c16565b9695505050505050565b6000811580610fcd57505080820282828281610fca57fe5b04145b61101e576040805162461bcd60e51b815260206004820152601460248201527f64732d6d6174682d6d756c2d6f766572666c6f77000000000000000000000000604482015290519081900360640190fd5b92915050565b8082038281111561101e576040805162461bcd60e51b815260206004820152601560248201527f64732d6d6174682d7375622d756e646572666c6f770000000000000000000000604482015290519081900360640190fd5b8082018281101561101e576040805162461bcd60e51b815260206004820152601460248201527f64732d6d6174682d6164642d6f766572666c6f77000000000000000000000000604482015290519081900360640190fdfe416c6974614c6962726172793a20494e53554646494349454e545f4c4951554944495459416c6974614c6962726172793a20494e53554646494349454e545f4f55545055545f414d4f554e54416c6974614c6962726172793a204944454e544943414c5f414444524553534553a2646970667358221220cc2df3e94d3e325049a58ad86383b9c2f6052ee18d9df910b1a8a1fa797e706864736f6c63430006060033",
  "immutableReferences": {
    "2097": [
      {
        "length": 32,
        "start": 1071
      }
    ],
    "2099": [
      {
        "length": 32,
        "start": 476
      },
      {
        "length": 32,
        "start": 1583
      },
      {
        "length": 32,
        "start": 2441
      }
    ],
    "2101": [
      {
        "length": 32,
        "start": 659
      },
      {
        "length": 32,
        "start": 712
      },
      {
        "length": 32,
        "start": 781
      },
      {
        "length": 32,
        "start": 860
      },
      {
        "length": 32,
        "start": 942
      },
      {
        "length": 32,
        "start": 1654
      },
      {
        "length": 32,
        "start": 1804
      },
      {
        "length": 32,
        "start": 2209
      }
    ]
  },
  "source": "pragma solidity =0.6.6;\n\nimport '../interfaces/IAlitaCallee.sol';\n\nimport '../libraries/AlitaLibrary.sol';\nimport '../interfaces/V1/IUniswapV1Factory.sol';\nimport '../interfaces/V1/IUniswapV1Exchange.sol';\nimport '../interfaces/IAlitaRouter01.sol';\nimport '../interfaces/IERC20.sol';\nimport '../interfaces/IWETH.sol';\n\ncontract ExampleFlashSwap is IAlitaCallee {\n    IUniswapV1Factory immutable factoryV1;\n    address immutable factory;\n    IWETH immutable WETH;\n\n    constructor(address _factory, address _factoryV1, address router) public {\n        factoryV1 = IUniswapV1Factory(_factoryV1);\n        factory = _factory;\n        WETH = IWETH(IAlitaRouter01(router).WETH());\n    }\n\n    // needs to accept ETH from any V1 exchange and WETH. ideally this could be enforced, as in the router,\n    // but it's not possible because it requires a call to the v1 factory, which takes too much gas\n    receive() external payable {}\n\n    // gets tokens/WETH via a V2 flash swap, swaps for the ETH/tokens on V1, repays V2, and keeps the rest!\n    function AlitaCall(address sender, uint amount0, uint amount1, bytes calldata data) external override {\n        address[] memory path = new address[](2);\n        uint amountToken;\n        uint amountETH;\n        { // scope for token{0,1}, avoids stack too deep errors\n        address token0 = IAlitaPair(msg.sender).token0();\n        address token1 = IAlitaPair(msg.sender).token1();\n        assert(msg.sender == AlitaLibrary.pairFor(factory, token0, token1)); // ensure that msg.sender is actually a V2 pair\n        assert(amount0 == 0 || amount1 == 0); // this strategy is unidirectional\n        path[0] = amount0 == 0 ? token0 : token1;\n        path[1] = amount0 == 0 ? token1 : token0;\n        amountToken = token0 == address(WETH) ? amount1 : amount0;\n        amountETH = token0 == address(WETH) ? amount0 : amount1;\n        }\n\n        assert(path[0] == address(WETH) || path[1] == address(WETH)); // this strategy only works with a V2 WETH pair\n        IERC20 token = IERC20(path[0] == address(WETH) ? path[1] : path[0]);\n        IUniswapV1Exchange exchangeV1 = IUniswapV1Exchange(factoryV1.getExchange(address(token))); // get V1 exchange\n\n        if (amountToken > 0) {\n            (uint minETH) = abi.decode(data, (uint)); // slippage parameter for V1, passed in by caller\n            token.approve(address(exchangeV1), amountToken);\n            uint amountReceived = exchangeV1.tokenToEthSwapInput(amountToken, minETH, uint(-1));\n            uint amountRequired = AlitaLibrary.getAmountsIn(factory, amountToken, path)[0];\n            assert(amountReceived > amountRequired); // fail if we didn't get enough ETH back to repay our flash loan\n            WETH.deposit{value: amountRequired}();\n            assert(WETH.transfer(msg.sender, amountRequired)); // return WETH to V2 pair\n            (bool success,) = sender.call{value: amountReceived - amountRequired}(new bytes(0)); // keep the rest! (ETH)\n            assert(success);\n        } else {\n            (uint minTokens) = abi.decode(data, (uint)); // slippage parameter for V1, passed in by caller\n            WETH.withdraw(amountETH);\n            uint amountReceived = exchangeV1.ethToTokenSwapInput{value: amountETH}(minTokens, uint(-1));\n            uint amountRequired = AlitaLibrary.getAmountsIn(factory, amountETH, path)[0];\n            assert(amountReceived > amountRequired); // fail if we didn't get enough tokens back to repay our flash loan\n            assert(token.transfer(msg.sender, amountRequired)); // return tokens to V2 pair\n            assert(token.transfer(sender, amountReceived - amountRequired)); // keep the rest! (tokens)\n        }\n    }\n}\n",
  "sourcePath": "/home/luandt/workplace/vndai-defi/swap-periphery/contracts/examples/ExampleFlashSwap.sol",
  "compiler": {
    "name": "solc",
    "version": "0.6.6+commit.6c089d02.Emscripten.clang"
  },
  "schemaVersion": "3.4.1",
  "updatedAt": "2021-06-26T10:16:01.994Z",
  "devdoc": {
    "methods": {}
  },
  "userdoc": {
    "methods": {}
  }
}